{
  "contractName": "NFTSwap",
  "abi": [
    {
      "inputs": [
        {
          "internalType": "address",
          "name": "",
          "type": "address"
        },
        {
          "internalType": "uint256",
          "name": "",
          "type": "uint256"
        }
      ],
      "name": "listings",
      "outputs": [
        {
          "internalType": "address",
          "name": "owner",
          "type": "address"
        },
        {
          "internalType": "address",
          "name": "oppositeContract",
          "type": "address"
        },
        {
          "internalType": "uint256",
          "name": "oppositeTokenId",
          "type": "uint256"
        }
      ],
      "stateMutability": "view",
      "type": "function",
      "constant": true
    },
    {
      "inputs": [
        {
          "internalType": "address",
          "name": "contract1Address",
          "type": "address"
        },
        {
          "internalType": "uint256",
          "name": "token1",
          "type": "uint256"
        },
        {
          "internalType": "address",
          "name": "contract2Address",
          "type": "address"
        },
        {
          "internalType": "uint256",
          "name": "token2",
          "type": "uint256"
        }
      ],
      "name": "swap",
      "outputs": [],
      "stateMutability": "nonpayable",
      "type": "function"
    },
    {
      "inputs": [
        {
          "internalType": "address",
          "name": "contractAddress",
          "type": "address"
        },
        {
          "internalType": "uint256",
          "name": "tokenId",
          "type": "uint256"
        }
      ],
      "name": "clearSwap",
      "outputs": [],
      "stateMutability": "nonpayable",
      "type": "function"
    }
  ],
  "bytecode": "0x608060405234801561001057600080fd5b506110ea806100206000396000f3fe608060405234801561001057600080fd5b50600436106100405760003560e01c806207df30146100455780638a0ccd5614610077578063be0a1ad814610093575b600080fd5b61005f600480360381019061005a9190610d5e565b6100af565b60405161006e93929190610f67565b60405180910390f35b610091600480360381019061008c9190610d9a565b610126565b005b6100ad60048036038101906100a89190610d5e565b610b4e565b005b6000602052816000526040600020602052806000526040600020600091509150508060000160009054906101000a900473ffffffffffffffffffffffffffffffffffffffff16908060010160009054906101000a900473ffffffffffffffffffffffffffffffffffffffff16908060020154905083565b600084905060008390503373ffffffffffffffffffffffffffffffffffffffff168273ffffffffffffffffffffffffffffffffffffffff16636352211e876040518263ffffffff1660e01b8152600401610180919061101e565b60206040518083038186803b15801561019857600080fd5b505afa1580156101ac573d6000803e3d6000fd5b505050506040513d601f19601f820116820180604052508101906101d09190610d35565b73ffffffffffffffffffffffffffffffffffffffff1614610226576040517f08c379a000000000000000000000000000000000000000000000000000000000815260040161021d90610fde565b60405180910390fd5b3073ffffffffffffffffffffffffffffffffffffffff168273ffffffffffffffffffffffffffffffffffffffff1663081812fc876040518263ffffffff1660e01b8152600401610276919061101e565b60206040518083038186803b15801561028e57600080fd5b505afa1580156102a2573d6000803e3d6000fd5b505050506040513d601f19601f820116820180604052508101906102c69190610d35565b73ffffffffffffffffffffffffffffffffffffffff161461031c576040517f08c379a000000000000000000000000000000000000000000000000000000000815260040161031390610ffe565b60405180910390fd5b3373ffffffffffffffffffffffffffffffffffffffff168173ffffffffffffffffffffffffffffffffffffffff16636352211e856040518263ffffffff1660e01b815260040161036c919061101e565b60206040518083038186803b15801561038457600080fd5b505afa158015610398573d6000803e3d6000fd5b505050506040513d601f19601f820116820180604052508101906103bc9190610d35565b73ffffffffffffffffffffffffffffffffffffffff161415610413576040517f08c379a000000000000000000000000000000000000000000000000000000000815260040161040a90610f9e565b60405180910390fd5b60008060008673ffffffffffffffffffffffffffffffffffffffff1673ffffffffffffffffffffffffffffffffffffffff16815260200190815260200160002060008581526020019081526020016000206040518060600160405290816000820160009054906101000a900473ffffffffffffffffffffffffffffffffffffffff1673ffffffffffffffffffffffffffffffffffffffff1673ffffffffffffffffffffffffffffffffffffffff1681526020016001820160009054906101000a900473ffffffffffffffffffffffffffffffffffffffff1673ffffffffffffffffffffffffffffffffffffffff1673ffffffffffffffffffffffffffffffffffffffff1681526020016002820154815250509050600073ffffffffffffffffffffffffffffffffffffffff16816000015173ffffffffffffffffffffffffffffffffffffffff1614610a1357806000015173ffffffffffffffffffffffffffffffffffffffff168273ffffffffffffffffffffffffffffffffffffffff16636352211e866040518263ffffffff1660e01b81526004016105b3919061101e565b60206040518083038186803b1580156105cb57600080fd5b505afa1580156105df573d6000803e3d6000fd5b505050506040513d601f19601f820116820180604052508101906106039190610d35565b73ffffffffffffffffffffffffffffffffffffffff161415806106da57503073ffffffffffffffffffffffffffffffffffffffff168273ffffffffffffffffffffffffffffffffffffffff1663081812fc866040518263ffffffff1660e01b8152600401610671919061101e565b60206040518083038186803b15801561068957600080fd5b505afa15801561069d573d6000803e3d6000fd5b505050506040513d601f19601f820116820180604052508101906106c19190610d35565b73ffffffffffffffffffffffffffffffffffffffff1614155b1561078c576000808673ffffffffffffffffffffffffffffffffffffffff1673ffffffffffffffffffffffffffffffffffffffff1681526020019081526020016000206000858152602001908152602001600020600080820160006101000a81549073ffffffffffffffffffffffffffffffffffffffff02191690556001820160006101000a81549073ffffffffffffffffffffffffffffffffffffffff021916905560028201600090555050610a12565b8673ffffffffffffffffffffffffffffffffffffffff16816020015173ffffffffffffffffffffffffffffffffffffffff161480156107ce5750858160400151145b15610a11578273ffffffffffffffffffffffffffffffffffffffff166323b872dd338360000151896040518463ffffffff1660e01b815260040161081493929190610f67565b600060405180830381600087803b15801561082e57600080fd5b505af1158015610842573d6000803e3d6000fd5b505050508173ffffffffffffffffffffffffffffffffffffffff166323b872dd826000015133876040518463ffffffff1660e01b815260040161088793929190610f67565b600060405180830381600087803b1580156108a157600080fd5b505af11580156108b5573d6000803e3d6000fd5b505050506000808873ffffffffffffffffffffffffffffffffffffffff1673ffffffffffffffffffffffffffffffffffffffff1681526020019081526020016000206000878152602001908152602001600020600080820160006101000a81549073ffffffffffffffffffffffffffffffffffffffff02191690556001820160006101000a81549073ffffffffffffffffffffffffffffffffffffffff0219169055600282016000905550506000808673ffffffffffffffffffffffffffffffffffffffff1673ffffffffffffffffffffffffffffffffffffffff1681526020019081526020016000206000858152602001908152602001600020600080820160006101000a81549073ffffffffffffffffffffffffffffffffffffffff02191690556001820160006101000a81549073ffffffffffffffffffffffffffffffffffffffff021916905560028201600090555050505050610b48565b5b5b60405180606001604052803373ffffffffffffffffffffffffffffffffffffffff1681526020018673ffffffffffffffffffffffffffffffffffffffff168152602001858152506000808973ffffffffffffffffffffffffffffffffffffffff1673ffffffffffffffffffffffffffffffffffffffff168152602001908152602001600020600088815260200190815260200160002060008201518160000160006101000a81548173ffffffffffffffffffffffffffffffffffffffff021916908373ffffffffffffffffffffffffffffffffffffffff16021790555060208201518160010160006101000a81548173ffffffffffffffffffffffffffffffffffffffff021916908373ffffffffffffffffffffffffffffffffffffffff160217905550604082015181600201559050505050505b50505050565b60008290503373ffffffffffffffffffffffffffffffffffffffff168173ffffffffffffffffffffffffffffffffffffffff16636352211e846040518263ffffffff1660e01b8152600401610ba3919061101e565b60206040518083038186803b158015610bbb57600080fd5b505afa158015610bcf573d6000803e3d6000fd5b505050506040513d601f19601f82011682018060405250810190610bf39190610d35565b73ffffffffffffffffffffffffffffffffffffffff1614610c49576040517f08c379a0000000000000000000000000000000000000000000000000000000008152600401610c4090610fbe565b60405180910390fd5b6000808473ffffffffffffffffffffffffffffffffffffffff1673ffffffffffffffffffffffffffffffffffffffff1681526020019081526020016000206000838152602001908152602001600020600080820160006101000a81549073ffffffffffffffffffffffffffffffffffffffff02191690556001820160006101000a81549073ffffffffffffffffffffffffffffffffffffffff021916905560028201600090555050505050565b600081359050610d0581611086565b92915050565b600081519050610d1a81611086565b92915050565b600081359050610d2f8161109d565b92915050565b600060208284031215610d4757600080fd5b6000610d5584828501610d0b565b91505092915050565b60008060408385031215610d7157600080fd5b6000610d7f85828601610cf6565b9250506020610d9085828601610d20565b9150509250929050565b60008060008060808587031215610db057600080fd5b6000610dbe87828801610cf6565b9450506020610dcf87828801610d20565b9350506040610de087828801610cf6565b9250506060610df187828801610d20565b91505092959194509250565b610e068161104a565b82525050565b6000610e19601b83611039565b91507f596f7520616c72656164792068617665207365636f6e64206e667400000000006000830152602082019050919050565b6000610e59601883611039565b91507f4f6e6c7920546f6b656e204f776e657220416c6c6f77656400000000000000006000830152602082019050919050565b6000610e99602383611039565b91507f596f7520417265204e6f7420546865204f776e6572206f66207468697320746f60008301527f6b656e00000000000000000000000000000000000000000000000000000000006020830152604082019050919050565b6000610eff602b83611039565b91507f596f75204861766520546f20466972737420417070726f76652054686973204560008301527f524337323120546f6b656e0000000000000000000000000000000000000000006020830152604082019050919050565b610f618161107c565b82525050565b6000606082019050610f7c6000830186610dfd565b610f896020830185610dfd565b610f966040830184610f58565b949350505050565b60006020820190508181036000830152610fb781610e0c565b9050919050565b60006020820190508181036000830152610fd781610e4c565b9050919050565b60006020820190508181036000830152610ff781610e8c565b9050919050565b6000602082019050818103600083015261101781610ef2565b9050919050565b60006020820190506110336000830184610f58565b92915050565b600082825260208201905092915050565b60006110558261105c565b9050919050565b600073ffffffffffffffffffffffffffffffffffffffff82169050919050565b6000819050919050565b61108f8161104a565b811461109a57600080fd5b50565b6110a68161107c565b81146110b157600080fd5b5056fea2646970667358221220543aa57ab2bf2713df1e2d1fc9ad6eace474f17732a0d3142d9ea995930493f864736f6c63430008000033",
  "immutableReferences": {},
  "source": "// SPDX-License-Identifier: MIT\npragma solidity >=0.4.22 <0.9.0;\n\nimport \"@openzeppelin/contracts/token/ERC721/IERC721.sol\";\n\ncontract NFTSwap {\n    struct Listing {\n        address owner;\n        address oppositeContract;\n        uint256 oppositeTokenId;\n    }\n\n    mapping(address => mapping(uint256 => Listing)) public listings;\n\n    function swap(\n        address contract1Address,\n        uint256 token1,\n        address contract2Address,\n        uint256 token2\n    ) public {\n        IERC721 contract1 = IERC721(contract1Address);\n        IERC721 contract2 = IERC721(contract2Address);\n        require(\n            contract1.ownerOf(token1) == msg.sender,\n            \"You Are Not The Owner of this token\"\n        );\n        require(\n            contract1.getApproved(token1) == address(this),\n            \"You Have To First Approve This ERC721 Token\"\n        );\n        require(\n            contract2.ownerOf(token2) != msg.sender,\n            \"You already have second nft\"\n        );\n\n        Listing memory listing2 = listings[contract2Address][token2];\n        if (listing2.owner != address(0)) {\n            if (\n                contract2.ownerOf(token2) != listing2.owner ||\n                contract2.getApproved(token2) != address(this)\n            ) {\n                delete listings[contract2Address][token2];\n            } else if (\n                listing2.oppositeContract == contract1Address &&\n                listing2.oppositeTokenId == token1\n            ) {\n                contract1.transferFrom(msg.sender, listing2.owner, token1);\n                contract2.transferFrom(listing2.owner, msg.sender, token2);\n                delete listings[contract1Address][token1];\n                delete listings[contract2Address][token2];\n                return;\n            }\n        }\n\n        listings[contract1Address][token1] = Listing(\n            msg.sender,\n            contract2Address,\n            token2\n        );\n    }\n\n    function clearSwap(address contractAddress, uint256 tokenId) public {\n        IERC721 tokenContract = IERC721(contractAddress);\n        require(\n            tokenContract.ownerOf(tokenId) == msg.sender,\n            \"Only Token Owner Allowed\"\n        );\n        delete listings[contractAddress][tokenId];\n    }\n}\n",
  "sourcePath": "/home/yash/Development/arsyan_work/nft_swap/smart_contracts/contracts/NFTSwap.sol",
  "compiler": {
    "name": "solc",
    "version": "0.8.0+commit.c7dfd78e.Emscripten.clang"
  },
  "schemaVersion": "3.4.1",
  "updatedAt": "2021-08-17T08:34:43.612Z",
  "networkType": "ethereum",
  "devdoc": {
    "kind": "dev",
    "methods": {},
    "version": 1
  },
  "userdoc": {
    "kind": "user",
    "methods": {},
    "version": 1
  }
}