{
  "contractName": "ERC1155Swap",
  "abi": [
    {
      "anonymous": false,
      "inputs": [
        {
          "indexed": false,
          "internalType": "uint256",
          "name": "id",
          "type": "uint256"
        }
      ],
      "name": "SwapCancelled",
      "type": "event"
    },
    {
      "anonymous": false,
      "inputs": [
        {
          "indexed": false,
          "internalType": "uint256",
          "name": "id",
          "type": "uint256"
        },
        {
          "indexed": false,
          "internalType": "address",
          "name": "owner",
          "type": "address"
        },
        {
          "indexed": false,
          "internalType": "address",
          "name": "contract1Address",
          "type": "address"
        },
        {
          "indexed": false,
          "internalType": "uint256",
          "name": "token1",
          "type": "uint256"
        },
        {
          "indexed": false,
          "internalType": "enum ERC1155Swap.NFTType",
          "name": "type1",
          "type": "uint8"
        },
        {
          "indexed": false,
          "internalType": "address",
          "name": "contract2Address",
          "type": "address"
        },
        {
          "indexed": false,
          "internalType": "uint256",
          "name": "token2",
          "type": "uint256"
        },
        {
          "indexed": false,
          "internalType": "enum ERC1155Swap.NFTType",
          "name": "type2",
          "type": "uint8"
        }
      ],
      "name": "SwapCreated",
      "type": "event"
    },
    {
      "anonymous": false,
      "inputs": [
        {
          "indexed": false,
          "internalType": "uint256",
          "name": "id",
          "type": "uint256"
        },
        {
          "indexed": false,
          "internalType": "address",
          "name": "counterParty",
          "type": "address"
        }
      ],
      "name": "SwapExecuted",
      "type": "event"
    },
    {
      "inputs": [
        {
          "internalType": "uint256",
          "name": "",
          "type": "uint256"
        }
      ],
      "name": "swaps",
      "outputs": [
        {
          "internalType": "address",
          "name": "owner",
          "type": "address"
        },
        {
          "internalType": "address",
          "name": "contract1Address",
          "type": "address"
        },
        {
          "internalType": "uint256",
          "name": "token1",
          "type": "uint256"
        },
        {
          "internalType": "enum ERC1155Swap.NFTType",
          "name": "type1",
          "type": "uint8"
        },
        {
          "internalType": "address",
          "name": "contract2Address",
          "type": "address"
        },
        {
          "internalType": "uint256",
          "name": "token2",
          "type": "uint256"
        },
        {
          "internalType": "enum ERC1155Swap.NFTType",
          "name": "type2",
          "type": "uint8"
        },
        {
          "internalType": "bool",
          "name": "done",
          "type": "bool"
        }
      ],
      "stateMutability": "view",
      "type": "function",
      "constant": true
    },
    {
      "inputs": [
        {
          "internalType": "address",
          "name": "contract1Address",
          "type": "address"
        },
        {
          "internalType": "uint256",
          "name": "token1",
          "type": "uint256"
        },
        {
          "internalType": "address",
          "name": "contract2Address",
          "type": "address"
        },
        {
          "internalType": "uint256",
          "name": "token2",
          "type": "uint256"
        }
      ],
      "name": "createSwap",
      "outputs": [
        {
          "internalType": "uint256",
          "name": "",
          "type": "uint256"
        }
      ],
      "stateMutability": "nonpayable",
      "type": "function"
    },
    {
      "inputs": [
        {
          "internalType": "uint256",
          "name": "swapId",
          "type": "uint256"
        },
        {
          "internalType": "address",
          "name": "contract1Address",
          "type": "address"
        },
        {
          "internalType": "uint256",
          "name": "token1",
          "type": "uint256"
        },
        {
          "internalType": "address",
          "name": "contract2Address",
          "type": "address"
        },
        {
          "internalType": "uint256",
          "name": "token2",
          "type": "uint256"
        }
      ],
      "name": "executeSwap",
      "outputs": [],
      "stateMutability": "nonpayable",
      "type": "function"
    },
    {
      "inputs": [
        {
          "internalType": "uint256",
          "name": "swapId",
          "type": "uint256"
        }
      ],
      "name": "cancelSwap",
      "outputs": [],
      "stateMutability": "nonpayable",
      "type": "function"
    }
  ],
  "bytecode": "0x608060405234801561001057600080fd5b50611f62806100206000396000f3fe608060405234801561001057600080fd5b506004361061004c5760003560e01c8063025ca29d1461005157806354d6a2b71461006d578063db7a3e2414610089578063f09c5829146100b9575b600080fd5b61006b6004803603810190610066919061174c565b6100f0565b005b610087600480360381019061008291906116fa565b61071a565b005b6100a3600480360381019061009e919061166e565b610826565b6040516100b09190611c89565b60405180910390f35b6100d360048036038101906100ce91906116fa565b610d36565b6040516100e7989796959493929190611aad565b60405180910390f35b6100fa6000610e05565b851061013b576040517f08c379a000000000000000000000000000000000000000000000000000000000815260040161013290611c29565b60405180910390fd5b600060016000878152602001908152602001600020604051806101000160405290816000820160009054906101000a900473ffffffffffffffffffffffffffffffffffffffff1673ffffffffffffffffffffffffffffffffffffffff1673ffffffffffffffffffffffffffffffffffffffff1681526020016001820160009054906101000a900473ffffffffffffffffffffffffffffffffffffffff1673ffffffffffffffffffffffffffffffffffffffff1673ffffffffffffffffffffffffffffffffffffffff168152602001600282015481526020016003820160009054906101000a900460ff16600281111561025d577f4e487b7100000000000000000000000000000000000000000000000000000000600052602160045260246000fd5b6002811115610295577f4e487b7100000000000000000000000000000000000000000000000000000000600052602160045260246000fd5b81526020016003820160019054906101000a900473ffffffffffffffffffffffffffffffffffffffff1673ffffffffffffffffffffffffffffffffffffffff1673ffffffffffffffffffffffffffffffffffffffff168152602001600482015481526020016005820160009054906101000a900460ff166002811115610344577f4e487b7100000000000000000000000000000000000000000000000000000000600052602160045260246000fd5b600281111561037c577f4e487b7100000000000000000000000000000000000000000000000000000000600052602160045260246000fd5b81526020016005820160019054906101000a900460ff16151515158152505090508060e00151156103e2576040517f08c379a00000000000000000000000000000000000000000000000000000000081526004016103d990611be9565b60405180910390fd5b60008373ffffffffffffffffffffffffffffffffffffffff16826020015173ffffffffffffffffffffffffffffffffffffffff161480156104265750828260400151145b801561046157508573ffffffffffffffffffffffffffffffffffffffff16826080015173ffffffffffffffffffffffffffffffffffffffff16145b80156104705750848260a00151145b9050806104b2576040517f08c379a00000000000000000000000000000000000000000000000000000000081526004016104a990611c69565b60405180910390fd5b60006104c43388888660c00151610e13565b90506040516020016104d590611a38565b60405160208183030381529060405280519060200120816040516020016104fc9190611a21565b60405160208183030381529060405280519060200120148190610555576040517f08c379a000000000000000000000000000000000000000000000000000000000815260040161054c9190611bc7565b60405180910390fd5b5060006105748460000151856020015186604001518760600151610e13565b905060405160200161058590611a38565b60405160208183030381529060405280519060200120816040516020016105ac9190611a21565b604051602081830303815290604052805190602001201461066e5760018060008b815260200190815260200160002060050160016101000a81548160ff0219169083151502179055507ff6b6b4f7a13f02512c1b3aa8dcc4a07d7775a6a4becbd439efcbd37c5408e67f896040516106249190611c89565b60405180910390a1600061066d576040517f08c379a000000000000000000000000000000000000000000000000000000000815260040161066490611be9565b60405180910390fd5b5b61068b84602001518560400151866000015133886060015161128a565b6106a884608001518560a001513387600001518860c0015161128a565b60018060008b815260200190815260200160002060050160016101000a81548160ff0219169083151502179055507f5e151cf22271fbddd8ba632d1dfc6790556a3990827574210cf70d2ed216a5058933604051610707929190611ca4565b60405180910390a1505050505050505050565b6001600082815260200190815260200160002060000160009054906101000a900473ffffffffffffffffffffffffffffffffffffffff1673ffffffffffffffffffffffffffffffffffffffff163373ffffffffffffffffffffffffffffffffffffffff16146107be576040517f08c379a00000000000000000000000000000000000000000000000000000000081526004016107b590611c09565b60405180910390fd5b600180600083815260200190815260200160002060050160016101000a81548160ff0219169083151502179055507ff6b6b4f7a13f02512c1b3aa8dcc4a07d7775a6a4becbd439efcbd37c5408e67f8160405161081b9190611c89565b60405180910390a150565b60008061083286611477565b9050600061083f85611477565b905060028081111561087a577f4e487b7100000000000000000000000000000000000000000000000000000000600052602160045260246000fd5b8260028111156108b3577f4e487b7100000000000000000000000000000000000000000000000000000000600052602160045260246000fd5b1415801561093157506002808111156108f5577f4e487b7100000000000000000000000000000000000000000000000000000000600052602160045260246000fd5b81600281111561092e577f4e487b7100000000000000000000000000000000000000000000000000000000600052602160045260246000fd5b14155b610970576040517f08c379a000000000000000000000000000000000000000000000000000000000815260040161096790611c49565b60405180910390fd5b600061097e33898986610e13565b905060405160200161098f90611a38565b60405160208183030381529060405280519060200120816040516020016109b69190611a21565b60405160208183030381529060405280519060200120148190610a0f576040517f08c379a0000000000000000000000000000000000000000000000000000000008152600401610a069190611bc7565b60405180910390fd5b506000610a1c6000610e05565b90506040518061010001604052803373ffffffffffffffffffffffffffffffffffffffff1681526020018a73ffffffffffffffffffffffffffffffffffffffff168152602001898152602001856002811115610aa1577f4e487b7100000000000000000000000000000000000000000000000000000000600052602160045260246000fd5b81526020018873ffffffffffffffffffffffffffffffffffffffff168152602001878152602001846002811115610b01577f4e487b7100000000000000000000000000000000000000000000000000000000600052602160045260246000fd5b8152602001600015158152506001600083815260200190815260200160002060008201518160000160006101000a81548173ffffffffffffffffffffffffffffffffffffffff021916908373ffffffffffffffffffffffffffffffffffffffff16021790555060208201518160010160006101000a81548173ffffffffffffffffffffffffffffffffffffffff021916908373ffffffffffffffffffffffffffffffffffffffff1602179055506040820151816002015560608201518160030160006101000a81548160ff02191690836002811115610c09577f4e487b7100000000000000000000000000000000000000000000000000000000600052602160045260246000fd5b021790555060808201518160030160016101000a81548173ffffffffffffffffffffffffffffffffffffffff021916908373ffffffffffffffffffffffffffffffffffffffff16021790555060a0820151816004015560c08201518160050160006101000a81548160ff02191690836002811115610cb0577f4e487b7100000000000000000000000000000000000000000000000000000000600052602160045260246000fd5b021790555060e08201518160050160016101000a81548160ff0219169083151502179055509050507f4197da0fd6817db68df408babd1a6d67196c352cd1a084b99a60398cc92dc1ba81338b8b888c8c8a604051610d15989796959493929190611ccd565b60405180910390a1610d2760006115c6565b80945050505050949350505050565b60016020528060005260406000206000915090508060000160009054906101000a900473ffffffffffffffffffffffffffffffffffffffff16908060010160009054906101000a900473ffffffffffffffffffffffffffffffffffffffff16908060020154908060030160009054906101000a900460ff16908060030160019054906101000a900473ffffffffffffffffffffffffffffffffffffffff16908060040154908060050160009054906101000a900460ff16908060050160019054906101000a900460ff16905088565b600081600001549050919050565b606060006002811115610e4f577f4e487b7100000000000000000000000000000000000000000000000000000000600052602160045260246000fd5b826002811115610e88577f4e487b7100000000000000000000000000000000000000000000000000000000600052602160045260246000fd5b141561106e5760008490508573ffffffffffffffffffffffffffffffffffffffff168173ffffffffffffffffffffffffffffffffffffffff16636352211e866040518263ffffffff1660e01b8152600401610ee39190611c89565b60206040518083038186803b158015610efb57600080fd5b505afa158015610f0f573d6000803e3d6000fd5b505050506040513d601f19601f82011682018060405250810190610f339190611645565b73ffffffffffffffffffffffffffffffffffffffff1614610f8c576040518060400160405280601881526020017f596f7520446f6e2774204f776e205468697320546f6b656e0000000000000000815250915050611282565b3073ffffffffffffffffffffffffffffffffffffffff168173ffffffffffffffffffffffffffffffffffffffff1663081812fc866040518263ffffffff1660e01b8152600401610fdc9190611c89565b60206040518083038186803b158015610ff457600080fd5b505afa158015611008573d6000803e3d6000fd5b505050506040513d601f19601f8201168201806040525081019061102c9190611645565b73ffffffffffffffffffffffffffffffffffffffff161461106857604051806060016040528060328152602001611efb60329139915050611282565b5061126f565b600160028111156110a8577f4e487b7100000000000000000000000000000000000000000000000000000000600052602160045260246000fd5b8260028111156110e1577f4e487b7100000000000000000000000000000000000000000000000000000000600052602160045260246000fd5b141561126e57600084905060008173ffffffffffffffffffffffffffffffffffffffff1662fdd58e88876040518363ffffffff1660e01b8152600401611128929190611b83565b60206040518083038186803b15801561114057600080fd5b505afa158015611154573d6000803e3d6000fd5b505050506040513d601f19601f820116820180604052508101906111789190611723565b14156111bc576040518060400160405280601881526020017f596f7520446f6e2774204f776e205468697320546f6b656e0000000000000000815250915050611282565b8073ffffffffffffffffffffffffffffffffffffffff1663e985e9c587306040518363ffffffff1660e01b81526004016111f7929190611a4d565b60206040518083038186803b15801561120f57600080fd5b505afa158015611223573d6000803e3d6000fd5b505050506040513d601f19601f8201168201806040525081019061124791906116d1565b61126c57604051806060016040528060328152602001611efb60329139915050611282565b505b5b6040518060200160405280600081525090505b949350505050565b600060028111156112c4577f4e487b7100000000000000000000000000000000000000000000000000000000600052602160045260246000fd5b8160028111156112fd577f4e487b7100000000000000000000000000000000000000000000000000000000600052602160045260246000fd5b141561137d5760008590508073ffffffffffffffffffffffffffffffffffffffff166323b872dd8585886040518463ffffffff1660e01b815260040161134593929190611a76565b600060405180830381600087803b15801561135f57600080fd5b505af1158015611373573d6000803e3d6000fd5b5050505050611470565b600160028111156113b7577f4e487b7100000000000000000000000000000000000000000000000000000000600052602160045260246000fd5b8160028111156113f0577f4e487b7100000000000000000000000000000000000000000000000000000000600052602160045260246000fd5b141561146f5760008590508073ffffffffffffffffffffffffffffffffffffffff1663f242432a85858860016040518563ffffffff1660e01b815260040161143b9493929190611b2b565b600060405180830381600087803b15801561145557600080fd5b505af1158015611469573d6000803e3d6000fd5b50505050505b5b5050505050565b6000808290508073ffffffffffffffffffffffffffffffffffffffff166301ffc9a76380ac58cd60e01b6040518263ffffffff1660e01b81526004016114bd9190611bac565b60206040518083038186803b1580156114d557600080fd5b505afa1580156114e9573d6000803e3d6000fd5b505050506040513d601f19601f8201168201806040525081019061150d91906116d1565b1561151c5760009150506115c1565b8073ffffffffffffffffffffffffffffffffffffffff166301ffc9a763d9b67a2660e01b6040518263ffffffff1660e01b815260040161155c9190611bac565b60206040518083038186803b15801561157457600080fd5b505afa158015611588573d6000803e3d6000fd5b505050506040513d601f19601f820116820180604052508101906115ac91906116d1565b156115bb5760019150506115c1565b60029150505b919050565b6001816000016000828254019250508190555050565b6000813590506115eb81611eb5565b92915050565b60008151905061160081611eb5565b92915050565b60008151905061161581611ecc565b92915050565b60008135905061162a81611ee3565b92915050565b60008151905061163f81611ee3565b92915050565b60006020828403121561165757600080fd5b6000611665848285016115f1565b91505092915050565b6000806000806080858703121561168457600080fd5b6000611692878288016115dc565b94505060206116a38782880161161b565b93505060406116b4878288016115dc565b92505060606116c58782880161161b565b91505092959194509250565b6000602082840312156116e357600080fd5b60006116f184828501611606565b91505092915050565b60006020828403121561170c57600080fd5b600061171a8482850161161b565b91505092915050565b60006020828403121561173557600080fd5b600061174384828501611630565b91505092915050565b600080600080600060a0868803121561176457600080fd5b60006117728882890161161b565b9550506020611783888289016115dc565b94505060406117948882890161161b565b93505060606117a5888289016115dc565b92505060806117b68882890161161b565b9150509295509295909350565b6117cc81611d83565b82525050565b6117db81611d95565b82525050565b6117ea81611da1565b82525050565b6117f981611e0a565b82525050565b61180881611e1c565b82525050565b600061181982611d4b565b6118238185611d67565b9350611833818560208601611e2e565b61183c81611e90565b840191505092915050565b600061185282611d4b565b61185c8185611d78565b935061186c818560208601611e2e565b80840191505092915050565b6000611885600e83611d67565b91507f53776170206e6f742056616c69640000000000000000000000000000000000006000830152602082019050919050565b60006118c5601d83611d67565b91507f4f6e6c792073776170206f776e65722063616e2063616e63656c2069740000006000830152602082019050919050565b6000611905601a83611d67565b91507f546869732053776170206973206e6576657220637265617465640000000000006000830152602082019050919050565b6000611945602183611d67565b91507f546865736520636f6e74726163747320617265206e6f7420737570706f72746560008301527f64000000000000000000000000000000000000000000000000000000000000006020830152604082019050919050565b60006119ab601083611d67565b91507f44657461696c73204d69736d61746368000000000000000000000000000000006000830152602082019050919050565b60006119eb600083611d56565b9150600082019050919050565b6000611a05600083611d78565b9150600082019050919050565b611a1b81611e00565b82525050565b6000611a2d8284611847565b915081905092915050565b6000611a43826119f8565b9150819050919050565b6000604082019050611a6260008301856117c3565b611a6f60208301846117c3565b9392505050565b6000606082019050611a8b60008301866117c3565b611a9860208301856117c3565b611aa56040830184611a12565b949350505050565b600061010082019050611ac3600083018b6117c3565b611ad0602083018a6117c3565b611add6040830189611a12565b611aea60608301886117f0565b611af760808301876117c3565b611b0460a0830186611a12565b611b1160c08301856117f0565b611b1e60e08301846117d2565b9998505050505050505050565b600060a082019050611b4060008301876117c3565b611b4d60208301866117c3565b611b5a6040830185611a12565b611b6760608301846117ff565b8181036080830152611b78816119de565b905095945050505050565b6000604082019050611b9860008301856117c3565b611ba56020830184611a12565b9392505050565b6000602082019050611bc160008301846117e1565b92915050565b60006020820190508181036000830152611be1818461180e565b905092915050565b60006020820190508181036000830152611c0281611878565b9050919050565b60006020820190508181036000830152611c22816118b8565b9050919050565b60006020820190508181036000830152611c42816118f8565b9050919050565b60006020820190508181036000830152611c6281611938565b9050919050565b60006020820190508181036000830152611c828161199e565b9050919050565b6000602082019050611c9e6000830184611a12565b92915050565b6000604082019050611cb96000830185611a12565b611cc660208301846117c3565b9392505050565b600061010082019050611ce3600083018b611a12565b611cf0602083018a6117c3565b611cfd60408301896117c3565b611d0a6060830188611a12565b611d1760808301876117f0565b611d2460a08301866117c3565b611d3160c0830185611a12565b611d3e60e08301846117f0565b9998505050505050505050565b600081519050919050565b600082825260208201905092915050565b600082825260208201905092915050565b600081905092915050565b6000611d8e82611de0565b9050919050565b60008115159050919050565b60007fffffffff0000000000000000000000000000000000000000000000000000000082169050919050565b6000819050611ddb82611ea1565b919050565b600073ffffffffffffffffffffffffffffffffffffffff82169050919050565b6000819050919050565b6000611e1582611dcd565b9050919050565b6000611e2782611e00565b9050919050565b60005b83811015611e4c578082015181840152602081019050611e31565b83811115611e5b576000848401525b50505050565b7f4e487b7100000000000000000000000000000000000000000000000000000000600052602160045260246000fd5b6000601f19601f8301169050919050565b60038110611eb257611eb1611e61565b5b50565b611ebe81611d83565b8114611ec957600080fd5b50565b611ed581611d95565b8114611ee057600080fd5b50565b611eec81611e00565b8114611ef757600080fd5b5056fe596f752048617665204e6f7420417070726f766564205468697320436f6e747261637420466f72205468697320546f6b656ea264697066735822122025255bfbe6269fcb85ddd1dc277dcdc49c0dfc8b25b69724985b02071d60369864736f6c63430008000033",
  "immutableReferences": {},
  "source": "// SPDX-License-Identifier: MIT\npragma solidity >=0.4.22 <0.9.0;\n\nimport \"@openzeppelin/contracts/token/ERC1155/IERC1155.sol\";\nimport \"@openzeppelin/contracts/token/ERC721/IERC721.sol\";\nimport \"@openzeppelin/contracts/utils/Counters.sol\";\nimport \"@openzeppelin/contracts/utils/introspection/IERC165.sol\";\n\ncontract ERC1155Swap {\n    using Counters for Counters.Counter;\n\n    enum NFTType {\n        ERC721,\n        ERC1155,\n        OTHER\n    }\n\n    Counters.Counter private _swapIdCounter;\n\n    bytes4 private constant _InterfaceId_ERC721 = 0x80ac58cd;\n    bytes4 private constant _InterfaceId_ERC1155 = 0xd9b67a26;\n\n    struct Swap {\n        address owner;\n        address contract1Address;\n        uint256 token1;\n        NFTType type1;\n        address contract2Address;\n        uint256 token2;\n        NFTType type2;\n        bool done;\n    }\n\n    mapping(uint256 => Swap) public swaps;\n\n    event SwapCreated(\n        uint256 id,\n        address owner,\n        address contract1Address,\n        uint256 token1,\n        NFTType type1,\n        address contract2Address,\n        uint256 token2,\n        NFTType type2\n    );\n\n    event SwapExecuted(uint256 id, address counterParty);\n\n    event SwapCancelled(uint256 id);\n\n    function createSwap(\n        address contract1Address,\n        uint256 token1,\n        address contract2Address,\n        uint256 token2\n    ) public returns (uint256) {\n        NFTType type1 = _getType(contract1Address);\n        NFTType type2 = _getType(contract2Address);\n        require(\n            type1 != NFTType.OTHER && type2 != NFTType.OTHER,\n            \"These contracts are not supported\"\n        );\n        string memory validationError = _validateTokenOwner(\n            msg.sender,\n            contract1Address,\n            token1,\n            type1\n        );\n        require(\n            keccak256(abi.encodePacked(validationError)) ==\n                keccak256(abi.encodePacked(\"\")),\n            validationError\n        );\n        uint256 swapId = _swapIdCounter.current();\n        swaps[swapId] = Swap(\n            msg.sender,\n            contract1Address,\n            token1,\n            type1,\n            contract2Address,\n            token2,\n            type2,\n            false\n        );\n        emit SwapCreated(\n            swapId,\n            msg.sender,\n            contract1Address,\n            token1,\n            type1,\n            contract2Address,\n            token2,\n            type2\n        );\n        _swapIdCounter.increment();\n        return swapId;\n    }\n\n    function executeSwap(\n        uint256 swapId,\n        address contract1Address,\n        uint256 token1,\n        address contract2Address,\n        uint256 token2\n    ) public {\n        require(\n            swapId < _swapIdCounter.current(),\n            \"This Swap is never created\"\n        );\n        Swap memory swap = swaps[swapId];\n        require(!swap.done, \"Swap not Valid\");\n        bool isValid = swap.contract1Address == contract2Address &&\n            swap.token1 == token2 &&\n            swap.contract2Address == contract1Address &&\n            swap.token2 == token1;\n        require(isValid, \"Details Mismatch\");\n        string memory validationError = _validateTokenOwner(\n            msg.sender,\n            contract1Address,\n            token1,\n            swap.type2\n        );\n        require(\n            keccak256(abi.encodePacked(validationError)) ==\n                keccak256(abi.encodePacked(\"\")),\n            validationError\n        );\n        string memory validationError2 = _validateTokenOwner(\n            swap.owner,\n            swap.contract1Address,\n            swap.token1,\n            swap.type1\n        );\n        if (\n            keccak256(abi.encodePacked(validationError2)) !=\n            keccak256(abi.encodePacked(\"\"))\n        ) {\n            swaps[swapId].done = true;\n            emit SwapCancelled(swapId);\n            require(false, \"Swap not Valid\");\n        }\n        _transferToken(\n            swap.contract1Address,\n            swap.token1,\n            swap.owner,\n            msg.sender,\n            swap.type1\n        );\n        _transferToken(\n            swap.contract2Address,\n            swap.token2,\n            msg.sender,\n            swap.owner,\n            swap.type2\n        );\n        swaps[swapId].done = true;\n        emit SwapExecuted(swapId, msg.sender);\n    }\n\n    function cancelSwap(uint256 swapId) public {\n        require(\n            msg.sender == swaps[swapId].owner,\n            \"Only swap owner can cancel it\"\n        );\n        swaps[swapId].done = true;\n        emit SwapCancelled(swapId);\n    }\n\n    function _getType(address contractAddress) internal view returns (NFTType) {\n        IERC165 nftContract = IERC165(contractAddress);\n        if (nftContract.supportsInterface(_InterfaceId_ERC721)) {\n            return NFTType.ERC721;\n        } else if (nftContract.supportsInterface(_InterfaceId_ERC1155)) {\n            return NFTType.ERC1155;\n        } else {\n            return NFTType.OTHER;\n        }\n    }\n\n    function _validateTokenOwner(\n        address owner,\n        address contractAddress,\n        uint256 tokenId,\n        NFTType tokenType\n    ) internal view returns (string memory) {\n        if (tokenType == NFTType.ERC721) {\n            IERC721 tokenContract = IERC721(contractAddress);\n            if (tokenContract.ownerOf(tokenId) != owner) {\n                return \"You Don't Own This Token\";\n            }\n            if (tokenContract.getApproved(tokenId) != address(this)) {\n                return \"You Have Not Approved This Contract For This Token\";\n            }\n        } else if (tokenType == NFTType.ERC1155) {\n            IERC1155 tokenContract = IERC1155(contractAddress);\n            if (tokenContract.balanceOf(owner, tokenId) == 0) {\n                return \"You Don't Own This Token\";\n            }\n            if (!tokenContract.isApprovedForAll(owner, address(this))) {\n                return \"You Have Not Approved This Contract For This Token\";\n            }\n        }\n        return \"\";\n    }\n\n    function _transferToken(\n        address contractAddress,\n        uint256 tokenId,\n        address from,\n        address to,\n        NFTType tokenType\n    ) internal {\n        if (tokenType == NFTType.ERC721) {\n            IERC721 tokenContract = IERC721(contractAddress);\n            tokenContract.transferFrom(from, to, tokenId);\n        } else if (tokenType == NFTType.ERC1155) {\n            IERC1155 tokenContract = IERC1155(contractAddress);\n            tokenContract.safeTransferFrom(from, to, tokenId, 1, \"\");\n        }\n    }\n}\n",
  "sourcePath": "/home/yash/Development/arsyan_work/nft_swap/smart_contracts/contracts/ERC1155Swap.sol",
  "compiler": {
    "name": "solc",
    "version": "0.8.0+commit.c7dfd78e.Emscripten.clang"
  },
  "schemaVersion": "3.4.1",
  "updatedAt": "2021-08-30T13:49:16.950Z",
  "networkType": "ethereum",
  "devdoc": {
    "kind": "dev",
    "methods": {},
    "version": 1
  },
  "userdoc": {
    "kind": "user",
    "methods": {},
    "version": 1
  }
}