{
  "contractName": "ERC1155Swap",
  "abi": [
    {
      "anonymous": false,
      "inputs": [
        {
          "indexed": false,
          "internalType": "uint256",
          "name": "id",
          "type": "uint256"
        }
      ],
      "name": "SwapCancelled",
      "type": "event"
    },
    {
      "anonymous": false,
      "inputs": [
        {
          "indexed": false,
          "internalType": "uint256",
          "name": "id",
          "type": "uint256"
        },
        {
          "indexed": false,
          "internalType": "address",
          "name": "owner",
          "type": "address"
        },
        {
          "indexed": false,
          "internalType": "address",
          "name": "contract1Address",
          "type": "address"
        },
        {
          "indexed": false,
          "internalType": "uint256",
          "name": "token1",
          "type": "uint256"
        },
        {
          "indexed": false,
          "internalType": "enum ERC1155Swap.NFTType",
          "name": "type1",
          "type": "uint8"
        },
        {
          "indexed": false,
          "internalType": "address",
          "name": "contract2Address",
          "type": "address"
        },
        {
          "indexed": false,
          "internalType": "uint256",
          "name": "token2",
          "type": "uint256"
        },
        {
          "indexed": false,
          "internalType": "enum ERC1155Swap.NFTType",
          "name": "type2",
          "type": "uint8"
        }
      ],
      "name": "SwapCreated",
      "type": "event"
    },
    {
      "anonymous": false,
      "inputs": [
        {
          "indexed": false,
          "internalType": "uint256",
          "name": "id",
          "type": "uint256"
        },
        {
          "indexed": false,
          "internalType": "address",
          "name": "counterParty",
          "type": "address"
        }
      ],
      "name": "SwapExecuted",
      "type": "event"
    },
    {
      "inputs": [
        {
          "internalType": "uint256",
          "name": "",
          "type": "uint256"
        }
      ],
      "name": "swaps",
      "outputs": [
        {
          "internalType": "address",
          "name": "owner",
          "type": "address"
        },
        {
          "internalType": "address",
          "name": "contract1Address",
          "type": "address"
        },
        {
          "internalType": "uint256",
          "name": "token1",
          "type": "uint256"
        },
        {
          "internalType": "enum ERC1155Swap.NFTType",
          "name": "type1",
          "type": "uint8"
        },
        {
          "internalType": "address",
          "name": "contract2Address",
          "type": "address"
        },
        {
          "internalType": "uint256",
          "name": "token2",
          "type": "uint256"
        },
        {
          "internalType": "enum ERC1155Swap.NFTType",
          "name": "type2",
          "type": "uint8"
        },
        {
          "internalType": "bool",
          "name": "done",
          "type": "bool"
        }
      ],
      "stateMutability": "view",
      "type": "function",
      "constant": true
    },
    {
      "inputs": [
        {
          "internalType": "address",
          "name": "contract1Address",
          "type": "address"
        },
        {
          "internalType": "uint256",
          "name": "token1",
          "type": "uint256"
        },
        {
          "internalType": "address",
          "name": "contract2Address",
          "type": "address"
        },
        {
          "internalType": "uint256",
          "name": "token2",
          "type": "uint256"
        }
      ],
      "name": "createSwap",
      "outputs": [
        {
          "internalType": "uint256",
          "name": "",
          "type": "uint256"
        }
      ],
      "stateMutability": "nonpayable",
      "type": "function"
    },
    {
      "inputs": [
        {
          "internalType": "uint256",
          "name": "swapId",
          "type": "uint256"
        },
        {
          "internalType": "address",
          "name": "contract1Address",
          "type": "address"
        },
        {
          "internalType": "uint256",
          "name": "token1",
          "type": "uint256"
        },
        {
          "internalType": "address",
          "name": "contract2Address",
          "type": "address"
        },
        {
          "internalType": "uint256",
          "name": "token2",
          "type": "uint256"
        }
      ],
      "name": "executeSwap",
      "outputs": [],
      "stateMutability": "nonpayable",
      "type": "function"
    },
    {
      "inputs": [
        {
          "internalType": "uint256",
          "name": "swapId",
          "type": "uint256"
        }
      ],
      "name": "cancelSwap",
      "outputs": [],
      "stateMutability": "nonpayable",
      "type": "function"
    },
    {
      "inputs": [
        {
          "internalType": "address",
          "name": "contractAddress",
          "type": "address"
        }
      ],
      "name": "getType",
      "outputs": [
        {
          "internalType": "enum ERC1155Swap.NFTType",
          "name": "",
          "type": "uint8"
        }
      ],
      "stateMutability": "view",
      "type": "function",
      "constant": true
    }
  ],
  "bytecode": "0x608060405234801561001057600080fd5b50611fe1806100206000396000f3fe608060405234801561001057600080fd5b50600436106100575760003560e01c8063025ca29d1461005c57806354d6a2b714610078578063db7a3e2414610094578063f09c5829146100c4578063f429f19b146100fb575b600080fd5b610076600480360381019061007191906117b0565b61012b565b005b610092600480360381019061008d919061175e565b610755565b005b6100ae60048036038101906100a991906116d2565b610861565b6040516100bb9190611d08565b60405180910390f35b6100de60048036038101906100d9919061175e565b610d71565b6040516100f2989796959493929190611b11565b60405180910390f35b61011560048036038101906101109190611680565b610e40565b6040516101229190611c2b565b60405180910390f35b6101356000610f8f565b8510610176576040517f08c379a000000000000000000000000000000000000000000000000000000000815260040161016d90611ca8565b60405180910390fd5b600060016000878152602001908152602001600020604051806101000160405290816000820160009054906101000a900473ffffffffffffffffffffffffffffffffffffffff1673ffffffffffffffffffffffffffffffffffffffff1673ffffffffffffffffffffffffffffffffffffffff1681526020016001820160009054906101000a900473ffffffffffffffffffffffffffffffffffffffff1673ffffffffffffffffffffffffffffffffffffffff1673ffffffffffffffffffffffffffffffffffffffff168152602001600282015481526020016003820160009054906101000a900460ff166002811115610298577f4e487b7100000000000000000000000000000000000000000000000000000000600052602160045260246000fd5b60028111156102d0577f4e487b7100000000000000000000000000000000000000000000000000000000600052602160045260246000fd5b81526020016003820160019054906101000a900473ffffffffffffffffffffffffffffffffffffffff1673ffffffffffffffffffffffffffffffffffffffff1673ffffffffffffffffffffffffffffffffffffffff168152602001600482015481526020016005820160009054906101000a900460ff16600281111561037f577f4e487b7100000000000000000000000000000000000000000000000000000000600052602160045260246000fd5b60028111156103b7577f4e487b7100000000000000000000000000000000000000000000000000000000600052602160045260246000fd5b81526020016005820160019054906101000a900460ff16151515158152505090508060e001511561041d576040517f08c379a000000000000000000000000000000000000000000000000000000000815260040161041490611c68565b60405180910390fd5b60008373ffffffffffffffffffffffffffffffffffffffff16826020015173ffffffffffffffffffffffffffffffffffffffff161480156104615750828260400151145b801561049c57508573ffffffffffffffffffffffffffffffffffffffff16826080015173ffffffffffffffffffffffffffffffffffffffff16145b80156104ab5750848260a00151145b9050806104ed576040517f08c379a00000000000000000000000000000000000000000000000000000000081526004016104e490611ce8565b60405180910390fd5b60006104ff3388888660c00151610f9d565b905060405160200161051090611a9c565b60405160208183030381529060405280519060200120816040516020016105379190611a85565b60405160208183030381529060405280519060200120148190610590576040517f08c379a00000000000000000000000000000000000000000000000000000000081526004016105879190611c46565b60405180910390fd5b5060006105af8460000151856020015186604001518760600151610f9d565b90506040516020016105c090611a9c565b60405160208183030381529060405280519060200120816040516020016105e79190611a85565b60405160208183030381529060405280519060200120146106a95760018060008b815260200190815260200160002060050160016101000a81548160ff0219169083151502179055507ff6b6b4f7a13f02512c1b3aa8dcc4a07d7775a6a4becbd439efcbd37c5408e67f8960405161065f9190611d08565b60405180910390a160006106a8576040517f08c379a000000000000000000000000000000000000000000000000000000000815260040161069f90611c68565b60405180910390fd5b5b6106c6846020015185604001518660000151338860600151611414565b6106e384608001518560a001513387600001518860c00151611414565b60018060008b815260200190815260200160002060050160016101000a81548160ff0219169083151502179055507f5e151cf22271fbddd8ba632d1dfc6790556a3990827574210cf70d2ed216a5058933604051610742929190611d23565b60405180910390a1505050505050505050565b6001600082815260200190815260200160002060000160009054906101000a900473ffffffffffffffffffffffffffffffffffffffff1673ffffffffffffffffffffffffffffffffffffffff163373ffffffffffffffffffffffffffffffffffffffff16146107f9576040517f08c379a00000000000000000000000000000000000000000000000000000000081526004016107f090611c88565b60405180910390fd5b600180600083815260200190815260200160002060050160016101000a81548160ff0219169083151502179055507ff6b6b4f7a13f02512c1b3aa8dcc4a07d7775a6a4becbd439efcbd37c5408e67f816040516108569190611d08565b60405180910390a150565b60008061086d86610e40565b9050600061087a85610e40565b90506002808111156108b5577f4e487b7100000000000000000000000000000000000000000000000000000000600052602160045260246000fd5b8260028111156108ee577f4e487b7100000000000000000000000000000000000000000000000000000000600052602160045260246000fd5b1415801561096c5750600280811115610930577f4e487b7100000000000000000000000000000000000000000000000000000000600052602160045260246000fd5b816002811115610969577f4e487b7100000000000000000000000000000000000000000000000000000000600052602160045260246000fd5b14155b6109ab576040517f08c379a00000000000000000000000000000000000000000000000000000000081526004016109a290611cc8565b60405180910390fd5b60006109b933898986610f9d565b90506040516020016109ca90611a9c565b60405160208183030381529060405280519060200120816040516020016109f19190611a85565b60405160208183030381529060405280519060200120148190610a4a576040517f08c379a0000000000000000000000000000000000000000000000000000000008152600401610a419190611c46565b60405180910390fd5b506000610a576000610f8f565b90506040518061010001604052803373ffffffffffffffffffffffffffffffffffffffff1681526020018a73ffffffffffffffffffffffffffffffffffffffff168152602001898152602001856002811115610adc577f4e487b7100000000000000000000000000000000000000000000000000000000600052602160045260246000fd5b81526020018873ffffffffffffffffffffffffffffffffffffffff168152602001878152602001846002811115610b3c577f4e487b7100000000000000000000000000000000000000000000000000000000600052602160045260246000fd5b8152602001600015158152506001600083815260200190815260200160002060008201518160000160006101000a81548173ffffffffffffffffffffffffffffffffffffffff021916908373ffffffffffffffffffffffffffffffffffffffff16021790555060208201518160010160006101000a81548173ffffffffffffffffffffffffffffffffffffffff021916908373ffffffffffffffffffffffffffffffffffffffff1602179055506040820151816002015560608201518160030160006101000a81548160ff02191690836002811115610c44577f4e487b7100000000000000000000000000000000000000000000000000000000600052602160045260246000fd5b021790555060808201518160030160016101000a81548173ffffffffffffffffffffffffffffffffffffffff021916908373ffffffffffffffffffffffffffffffffffffffff16021790555060a0820151816004015560c08201518160050160006101000a81548160ff02191690836002811115610ceb577f4e487b7100000000000000000000000000000000000000000000000000000000600052602160045260246000fd5b021790555060e08201518160050160016101000a81548160ff0219169083151502179055509050507f4197da0fd6817db68df408babd1a6d67196c352cd1a084b99a60398cc92dc1ba81338b8b888c8c8a604051610d50989796959493929190611d4c565b60405180910390a1610d626000611601565b80945050505050949350505050565b60016020528060005260406000206000915090508060000160009054906101000a900473ffffffffffffffffffffffffffffffffffffffff16908060010160009054906101000a900473ffffffffffffffffffffffffffffffffffffffff16908060020154908060030160009054906101000a900460ff16908060030160019054906101000a900473ffffffffffffffffffffffffffffffffffffffff16908060040154908060050160009054906101000a900460ff16908060050160019054906101000a900460ff16905088565b6000808290508073ffffffffffffffffffffffffffffffffffffffff166301ffc9a76380ac58cd60e01b6040518263ffffffff1660e01b8152600401610e869190611c10565b60206040518083038186803b158015610e9e57600080fd5b505afa158015610eb2573d6000803e3d6000fd5b505050506040513d601f19601f82011682018060405250810190610ed69190611735565b15610ee5576000915050610f8a565b8073ffffffffffffffffffffffffffffffffffffffff166301ffc9a763d9b67a2660e01b6040518263ffffffff1660e01b8152600401610f259190611c10565b60206040518083038186803b158015610f3d57600080fd5b505afa158015610f51573d6000803e3d6000fd5b505050506040513d601f19601f82011682018060405250810190610f759190611735565b15610f84576001915050610f8a565b60029150505b919050565b600081600001549050919050565b606060006002811115610fd9577f4e487b7100000000000000000000000000000000000000000000000000000000600052602160045260246000fd5b826002811115611012577f4e487b7100000000000000000000000000000000000000000000000000000000600052602160045260246000fd5b14156111f85760008490508573ffffffffffffffffffffffffffffffffffffffff168173ffffffffffffffffffffffffffffffffffffffff16636352211e866040518263ffffffff1660e01b815260040161106d9190611d08565b60206040518083038186803b15801561108557600080fd5b505afa158015611099573d6000803e3d6000fd5b505050506040513d601f19601f820116820180604052508101906110bd91906116a9565b73ffffffffffffffffffffffffffffffffffffffff1614611116576040518060400160405280601881526020017f596f7520446f6e2774204f776e205468697320546f6b656e000000000000000081525091505061140c565b3073ffffffffffffffffffffffffffffffffffffffff168173ffffffffffffffffffffffffffffffffffffffff1663081812fc866040518263ffffffff1660e01b81526004016111669190611d08565b60206040518083038186803b15801561117e57600080fd5b505afa158015611192573d6000803e3d6000fd5b505050506040513d601f19601f820116820180604052508101906111b691906116a9565b73ffffffffffffffffffffffffffffffffffffffff16146111f257604051806060016040528060328152602001611f7a6032913991505061140c565b506113f9565b60016002811115611232577f4e487b7100000000000000000000000000000000000000000000000000000000600052602160045260246000fd5b82600281111561126b577f4e487b7100000000000000000000000000000000000000000000000000000000600052602160045260246000fd5b14156113f857600084905060008173ffffffffffffffffffffffffffffffffffffffff1662fdd58e88876040518363ffffffff1660e01b81526004016112b2929190611be7565b60206040518083038186803b1580156112ca57600080fd5b505afa1580156112de573d6000803e3d6000fd5b505050506040513d601f19601f820116820180604052508101906113029190611787565b1415611346576040518060400160405280601881526020017f596f7520446f6e2774204f776e205468697320546f6b656e000000000000000081525091505061140c565b8073ffffffffffffffffffffffffffffffffffffffff1663e985e9c587306040518363ffffffff1660e01b8152600401611381929190611ab1565b60206040518083038186803b15801561139957600080fd5b505afa1580156113ad573d6000803e3d6000fd5b505050506040513d601f19601f820116820180604052508101906113d19190611735565b6113f657604051806060016040528060328152602001611f7a6032913991505061140c565b505b5b6040518060200160405280600081525090505b949350505050565b6000600281111561144e577f4e487b7100000000000000000000000000000000000000000000000000000000600052602160045260246000fd5b816002811115611487577f4e487b7100000000000000000000000000000000000000000000000000000000600052602160045260246000fd5b14156115075760008590508073ffffffffffffffffffffffffffffffffffffffff166323b872dd8585886040518463ffffffff1660e01b81526004016114cf93929190611ada565b600060405180830381600087803b1580156114e957600080fd5b505af11580156114fd573d6000803e3d6000fd5b50505050506115fa565b60016002811115611541577f4e487b7100000000000000000000000000000000000000000000000000000000600052602160045260246000fd5b81600281111561157a577f4e487b7100000000000000000000000000000000000000000000000000000000600052602160045260246000fd5b14156115f95760008590508073ffffffffffffffffffffffffffffffffffffffff1663f242432a85858860016040518563ffffffff1660e01b81526004016115c59493929190611b8f565b600060405180830381600087803b1580156115df57600080fd5b505af11580156115f3573d6000803e3d6000fd5b50505050505b5b5050505050565b6001816000016000828254019250508190555050565b60008135905061162681611f34565b92915050565b60008151905061163b81611f34565b92915050565b60008151905061165081611f4b565b92915050565b60008135905061166581611f62565b92915050565b60008151905061167a81611f62565b92915050565b60006020828403121561169257600080fd5b60006116a084828501611617565b91505092915050565b6000602082840312156116bb57600080fd5b60006116c98482850161162c565b91505092915050565b600080600080608085870312156116e857600080fd5b60006116f687828801611617565b945050602061170787828801611656565b935050604061171887828801611617565b925050606061172987828801611656565b91505092959194509250565b60006020828403121561174757600080fd5b600061175584828501611641565b91505092915050565b60006020828403121561177057600080fd5b600061177e84828501611656565b91505092915050565b60006020828403121561179957600080fd5b60006117a78482850161166b565b91505092915050565b600080600080600060a086880312156117c857600080fd5b60006117d688828901611656565b95505060206117e788828901611617565b94505060406117f888828901611656565b935050606061180988828901611617565b925050608061181a88828901611656565b9150509295509295909350565b61183081611e02565b82525050565b61183f81611e14565b82525050565b61184e81611e20565b82525050565b61185d81611e89565b82525050565b61186c81611e9b565b82525050565b600061187d82611dca565b6118878185611de6565b9350611897818560208601611ead565b6118a081611f0f565b840191505092915050565b60006118b682611dca565b6118c08185611df7565b93506118d0818560208601611ead565b80840191505092915050565b60006118e9600e83611de6565b91507f53776170206e6f742056616c69640000000000000000000000000000000000006000830152602082019050919050565b6000611929601d83611de6565b91507f4f6e6c792073776170206f776e65722063616e2063616e63656c2069740000006000830152602082019050919050565b6000611969601a83611de6565b91507f546869732053776170206973206e6576657220637265617465640000000000006000830152602082019050919050565b60006119a9602183611de6565b91507f546865736520636f6e74726163747320617265206e6f7420737570706f72746560008301527f64000000000000000000000000000000000000000000000000000000000000006020830152604082019050919050565b6000611a0f601083611de6565b91507f44657461696c73204d69736d61746368000000000000000000000000000000006000830152602082019050919050565b6000611a4f600083611dd5565b9150600082019050919050565b6000611a69600083611df7565b9150600082019050919050565b611a7f81611e7f565b82525050565b6000611a9182846118ab565b915081905092915050565b6000611aa782611a5c565b9150819050919050565b6000604082019050611ac66000830185611827565b611ad36020830184611827565b9392505050565b6000606082019050611aef6000830186611827565b611afc6020830185611827565b611b096040830184611a76565b949350505050565b600061010082019050611b27600083018b611827565b611b34602083018a611827565b611b416040830189611a76565b611b4e6060830188611854565b611b5b6080830187611827565b611b6860a0830186611a76565b611b7560c0830185611854565b611b8260e0830184611836565b9998505050505050505050565b600060a082019050611ba46000830187611827565b611bb16020830186611827565b611bbe6040830185611a76565b611bcb6060830184611863565b8181036080830152611bdc81611a42565b905095945050505050565b6000604082019050611bfc6000830185611827565b611c096020830184611a76565b9392505050565b6000602082019050611c256000830184611845565b92915050565b6000602082019050611c406000830184611854565b92915050565b60006020820190508181036000830152611c608184611872565b905092915050565b60006020820190508181036000830152611c81816118dc565b9050919050565b60006020820190508181036000830152611ca18161191c565b9050919050565b60006020820190508181036000830152611cc18161195c565b9050919050565b60006020820190508181036000830152611ce18161199c565b9050919050565b60006020820190508181036000830152611d0181611a02565b9050919050565b6000602082019050611d1d6000830184611a76565b92915050565b6000604082019050611d386000830185611a76565b611d456020830184611827565b9392505050565b600061010082019050611d62600083018b611a76565b611d6f602083018a611827565b611d7c6040830189611827565b611d896060830188611a76565b611d966080830187611854565b611da360a0830186611827565b611db060c0830185611a76565b611dbd60e0830184611854565b9998505050505050505050565b600081519050919050565b600082825260208201905092915050565b600082825260208201905092915050565b600081905092915050565b6000611e0d82611e5f565b9050919050565b60008115159050919050565b60007fffffffff0000000000000000000000000000000000000000000000000000000082169050919050565b6000819050611e5a82611f20565b919050565b600073ffffffffffffffffffffffffffffffffffffffff82169050919050565b6000819050919050565b6000611e9482611e4c565b9050919050565b6000611ea682611e7f565b9050919050565b60005b83811015611ecb578082015181840152602081019050611eb0565b83811115611eda576000848401525b50505050565b7f4e487b7100000000000000000000000000000000000000000000000000000000600052602160045260246000fd5b6000601f19601f8301169050919050565b60038110611f3157611f30611ee0565b5b50565b611f3d81611e02565b8114611f4857600080fd5b50565b611f5481611e14565b8114611f5f57600080fd5b50565b611f6b81611e7f565b8114611f7657600080fd5b5056fe596f752048617665204e6f7420417070726f766564205468697320436f6e747261637420466f72205468697320546f6b656ea26469706673582212207ca13660d71ffeb4dcc3c0d27027d1a979e2ec96a3c7b69a90ecc8e47702590364736f6c63430008000033",
  "immutableReferences": {},
  "source": "// SPDX-License-Identifier: MIT\npragma solidity >=0.4.22 <0.9.0;\n\nimport \"@openzeppelin/contracts/token/ERC1155/IERC1155.sol\";\nimport \"@openzeppelin/contracts/token/ERC721/IERC721.sol\";\nimport \"@openzeppelin/contracts/utils/Counters.sol\";\nimport \"@openzeppelin/contracts/utils/introspection/IERC165.sol\";\n\ncontract ERC1155Swap {\n    using Counters for Counters.Counter;\n\n    enum NFTType {\n        ERC721,\n        ERC1155,\n        OTHER\n    }\n\n    Counters.Counter private _swapIdCounter;\n\n    bytes4 private constant _InterfaceId_ERC721 = 0x80ac58cd;\n    bytes4 private constant _InterfaceId_ERC1155 = 0xd9b67a26;\n\n    struct Swap {\n        address owner;\n        address contract1Address;\n        uint256 token1;\n        NFTType type1;\n        address contract2Address;\n        uint256 token2;\n        NFTType type2;\n        bool done;\n    }\n\n    mapping(uint256 => Swap) public swaps;\n\n    event SwapCreated(\n        uint256 id,\n        address owner,\n        address contract1Address,\n        uint256 token1,\n        NFTType type1,\n        address contract2Address,\n        uint256 token2,\n        NFTType type2\n    );\n\n    event SwapExecuted(uint256 id, address counterParty);\n\n    event SwapCancelled(uint256 id);\n\n    function createSwap(\n        address contract1Address,\n        uint256 token1,\n        address contract2Address,\n        uint256 token2\n    ) public returns (uint256) {\n        NFTType type1 = getType(contract1Address);\n        NFTType type2 = getType(contract2Address);\n        require(\n            type1 != NFTType.OTHER && type2 != NFTType.OTHER,\n            \"These contracts are not supported\"\n        );\n        string memory validationError = _validateTokenOwner(\n            msg.sender,\n            contract1Address,\n            token1,\n            type1\n        );\n        require(\n            keccak256(abi.encodePacked(validationError)) ==\n                keccak256(abi.encodePacked(\"\")),\n            validationError\n        );\n        uint256 swapId = _swapIdCounter.current();\n        swaps[swapId] = Swap(\n            msg.sender,\n            contract1Address,\n            token1,\n            type1,\n            contract2Address,\n            token2,\n            type2,\n            false\n        );\n        emit SwapCreated(\n            swapId,\n            msg.sender,\n            contract1Address,\n            token1,\n            type1,\n            contract2Address,\n            token2,\n            type2\n        );\n        _swapIdCounter.increment();\n        return swapId;\n    }\n\n    function executeSwap(\n        uint256 swapId,\n        address contract1Address,\n        uint256 token1,\n        address contract2Address,\n        uint256 token2\n    ) public {\n        require(\n            swapId < _swapIdCounter.current(),\n            \"This Swap is never created\"\n        );\n        Swap memory swap = swaps[swapId];\n        require(!swap.done, \"Swap not Valid\");\n        bool isValid = swap.contract1Address == contract2Address &&\n            swap.token1 == token2 &&\n            swap.contract2Address == contract1Address &&\n            swap.token2 == token1;\n        require(isValid, \"Details Mismatch\");\n        string memory validationError = _validateTokenOwner(\n            msg.sender,\n            contract1Address,\n            token1,\n            swap.type2\n        );\n        require(\n            keccak256(abi.encodePacked(validationError)) ==\n                keccak256(abi.encodePacked(\"\")),\n            validationError\n        );\n        string memory validationError2 = _validateTokenOwner(\n            swap.owner,\n            swap.contract1Address,\n            swap.token1,\n            swap.type1\n        );\n        if (\n            keccak256(abi.encodePacked(validationError2)) !=\n            keccak256(abi.encodePacked(\"\"))\n        ) {\n            swaps[swapId].done = true;\n            emit SwapCancelled(swapId);\n            require(false, \"Swap not Valid\");\n        }\n        _transferToken(\n            swap.contract1Address,\n            swap.token1,\n            swap.owner,\n            msg.sender,\n            swap.type1\n        );\n        _transferToken(\n            swap.contract2Address,\n            swap.token2,\n            msg.sender,\n            swap.owner,\n            swap.type2\n        );\n        swaps[swapId].done = true;\n        emit SwapExecuted(swapId, msg.sender);\n    }\n\n    function cancelSwap(uint256 swapId) public {\n        require(\n            msg.sender == swaps[swapId].owner,\n            \"Only swap owner can cancel it\"\n        );\n        swaps[swapId].done = true;\n        emit SwapCancelled(swapId);\n    }\n\n    function getType(address contractAddress) public view returns (NFTType) {\n        IERC165 nftContract = IERC165(contractAddress);\n        if (nftContract.supportsInterface(_InterfaceId_ERC721)) {\n            return NFTType.ERC721;\n        } else if (nftContract.supportsInterface(_InterfaceId_ERC1155)) {\n            return NFTType.ERC1155;\n        } else {\n            return NFTType.OTHER;\n        }\n    }\n\n    function _validateTokenOwner(\n        address owner,\n        address contractAddress,\n        uint256 tokenId,\n        NFTType tokenType\n    ) internal view returns (string memory) {\n        if (tokenType == NFTType.ERC721) {\n            IERC721 tokenContract = IERC721(contractAddress);\n            if (tokenContract.ownerOf(tokenId) != owner) {\n                return \"You Don't Own This Token\";\n            }\n            if (tokenContract.getApproved(tokenId) != address(this)) {\n                return \"You Have Not Approved This Contract For This Token\";\n            }\n        } else if (tokenType == NFTType.ERC1155) {\n            IERC1155 tokenContract = IERC1155(contractAddress);\n            if (tokenContract.balanceOf(owner, tokenId) == 0) {\n                return \"You Don't Own This Token\";\n            }\n            if (!tokenContract.isApprovedForAll(owner, address(this))) {\n                return \"You Have Not Approved This Contract For This Token\";\n            }\n        }\n        return \"\";\n    }\n\n    function _transferToken(\n        address contractAddress,\n        uint256 tokenId,\n        address from,\n        address to,\n        NFTType tokenType\n    ) internal {\n        if (tokenType == NFTType.ERC721) {\n            IERC721 tokenContract = IERC721(contractAddress);\n            tokenContract.transferFrom(from, to, tokenId);\n        } else if (tokenType == NFTType.ERC1155) {\n            IERC1155 tokenContract = IERC1155(contractAddress);\n            tokenContract.safeTransferFrom(from, to, tokenId, 1, \"\");\n        }\n    }\n}\n",
  "sourcePath": "/home/yash/Development/arsyan_work/nft_swap/smart_contracts/contracts/ERC1155Swap.sol",
  "compiler": {
    "name": "solc",
    "version": "0.8.0+commit.c7dfd78e.Emscripten.clang"
  },
  "schemaVersion": "3.4.1",
  "updatedAt": "2021-08-23T06:08:02.847Z",
  "networkType": "ethereum",
  "devdoc": {
    "kind": "dev",
    "methods": {},
    "version": 1
  },
  "userdoc": {
    "kind": "user",
    "methods": {},
    "version": 1
  }
}