{
  "contractName": "TestERC1155Token",
  "abi": [
    {
      "inputs": [],
      "stateMutability": "nonpayable",
      "type": "constructor"
    },
    {
      "anonymous": false,
      "inputs": [
        {
          "indexed": true,
          "internalType": "address",
          "name": "account",
          "type": "address"
        },
        {
          "indexed": true,
          "internalType": "address",
          "name": "operator",
          "type": "address"
        },
        {
          "indexed": false,
          "internalType": "bool",
          "name": "approved",
          "type": "bool"
        }
      ],
      "name": "ApprovalForAll",
      "type": "event"
    },
    {
      "anonymous": false,
      "inputs": [
        {
          "indexed": true,
          "internalType": "address",
          "name": "previousOwner",
          "type": "address"
        },
        {
          "indexed": true,
          "internalType": "address",
          "name": "newOwner",
          "type": "address"
        }
      ],
      "name": "OwnershipTransferred",
      "type": "event"
    },
    {
      "anonymous": false,
      "inputs": [
        {
          "indexed": true,
          "internalType": "address",
          "name": "operator",
          "type": "address"
        },
        {
          "indexed": true,
          "internalType": "address",
          "name": "from",
          "type": "address"
        },
        {
          "indexed": true,
          "internalType": "address",
          "name": "to",
          "type": "address"
        },
        {
          "indexed": false,
          "internalType": "uint256[]",
          "name": "ids",
          "type": "uint256[]"
        },
        {
          "indexed": false,
          "internalType": "uint256[]",
          "name": "values",
          "type": "uint256[]"
        }
      ],
      "name": "TransferBatch",
      "type": "event"
    },
    {
      "anonymous": false,
      "inputs": [
        {
          "indexed": true,
          "internalType": "address",
          "name": "operator",
          "type": "address"
        },
        {
          "indexed": true,
          "internalType": "address",
          "name": "from",
          "type": "address"
        },
        {
          "indexed": true,
          "internalType": "address",
          "name": "to",
          "type": "address"
        },
        {
          "indexed": false,
          "internalType": "uint256",
          "name": "id",
          "type": "uint256"
        },
        {
          "indexed": false,
          "internalType": "uint256",
          "name": "value",
          "type": "uint256"
        }
      ],
      "name": "TransferSingle",
      "type": "event"
    },
    {
      "anonymous": false,
      "inputs": [
        {
          "indexed": false,
          "internalType": "string",
          "name": "value",
          "type": "string"
        },
        {
          "indexed": true,
          "internalType": "uint256",
          "name": "id",
          "type": "uint256"
        }
      ],
      "name": "URI",
      "type": "event"
    },
    {
      "inputs": [
        {
          "internalType": "address",
          "name": "account",
          "type": "address"
        },
        {
          "internalType": "uint256",
          "name": "id",
          "type": "uint256"
        }
      ],
      "name": "balanceOf",
      "outputs": [
        {
          "internalType": "uint256",
          "name": "",
          "type": "uint256"
        }
      ],
      "stateMutability": "view",
      "type": "function",
      "constant": true
    },
    {
      "inputs": [
        {
          "internalType": "address[]",
          "name": "accounts",
          "type": "address[]"
        },
        {
          "internalType": "uint256[]",
          "name": "ids",
          "type": "uint256[]"
        }
      ],
      "name": "balanceOfBatch",
      "outputs": [
        {
          "internalType": "uint256[]",
          "name": "",
          "type": "uint256[]"
        }
      ],
      "stateMutability": "view",
      "type": "function",
      "constant": true
    },
    {
      "inputs": [
        {
          "internalType": "address",
          "name": "account",
          "type": "address"
        },
        {
          "internalType": "address",
          "name": "operator",
          "type": "address"
        }
      ],
      "name": "isApprovedForAll",
      "outputs": [
        {
          "internalType": "bool",
          "name": "",
          "type": "bool"
        }
      ],
      "stateMutability": "view",
      "type": "function",
      "constant": true
    },
    {
      "inputs": [],
      "name": "owner",
      "outputs": [
        {
          "internalType": "address",
          "name": "",
          "type": "address"
        }
      ],
      "stateMutability": "view",
      "type": "function",
      "constant": true
    },
    {
      "inputs": [],
      "name": "renounceOwnership",
      "outputs": [],
      "stateMutability": "nonpayable",
      "type": "function"
    },
    {
      "inputs": [
        {
          "internalType": "address",
          "name": "from",
          "type": "address"
        },
        {
          "internalType": "address",
          "name": "to",
          "type": "address"
        },
        {
          "internalType": "uint256[]",
          "name": "ids",
          "type": "uint256[]"
        },
        {
          "internalType": "uint256[]",
          "name": "amounts",
          "type": "uint256[]"
        },
        {
          "internalType": "bytes",
          "name": "data",
          "type": "bytes"
        }
      ],
      "name": "safeBatchTransferFrom",
      "outputs": [],
      "stateMutability": "nonpayable",
      "type": "function"
    },
    {
      "inputs": [
        {
          "internalType": "address",
          "name": "from",
          "type": "address"
        },
        {
          "internalType": "address",
          "name": "to",
          "type": "address"
        },
        {
          "internalType": "uint256",
          "name": "id",
          "type": "uint256"
        },
        {
          "internalType": "uint256",
          "name": "amount",
          "type": "uint256"
        },
        {
          "internalType": "bytes",
          "name": "data",
          "type": "bytes"
        }
      ],
      "name": "safeTransferFrom",
      "outputs": [],
      "stateMutability": "nonpayable",
      "type": "function"
    },
    {
      "inputs": [
        {
          "internalType": "address",
          "name": "operator",
          "type": "address"
        },
        {
          "internalType": "bool",
          "name": "approved",
          "type": "bool"
        }
      ],
      "name": "setApprovalForAll",
      "outputs": [],
      "stateMutability": "nonpayable",
      "type": "function"
    },
    {
      "inputs": [
        {
          "internalType": "bytes4",
          "name": "interfaceId",
          "type": "bytes4"
        }
      ],
      "name": "supportsInterface",
      "outputs": [
        {
          "internalType": "bool",
          "name": "",
          "type": "bool"
        }
      ],
      "stateMutability": "view",
      "type": "function",
      "constant": true
    },
    {
      "inputs": [
        {
          "internalType": "address",
          "name": "newOwner",
          "type": "address"
        }
      ],
      "name": "transferOwnership",
      "outputs": [],
      "stateMutability": "nonpayable",
      "type": "function"
    },
    {
      "inputs": [
        {
          "internalType": "uint256",
          "name": "",
          "type": "uint256"
        }
      ],
      "name": "uri",
      "outputs": [
        {
          "internalType": "string",
          "name": "",
          "type": "string"
        }
      ],
      "stateMutability": "view",
      "type": "function",
      "constant": true
    },
    {
      "inputs": [
        {
          "internalType": "string",
          "name": "newuri",
          "type": "string"
        }
      ],
      "name": "setURI",
      "outputs": [],
      "stateMutability": "nonpayable",
      "type": "function"
    },
    {
      "inputs": [
        {
          "internalType": "address",
          "name": "account",
          "type": "address"
        },
        {
          "internalType": "uint256",
          "name": "id",
          "type": "uint256"
        },
        {
          "internalType": "uint256",
          "name": "amount",
          "type": "uint256"
        }
      ],
      "name": "mint",
      "outputs": [],
      "stateMutability": "nonpayable",
      "type": "function"
    },
    {
      "inputs": [
        {
          "internalType": "address",
          "name": "to",
          "type": "address"
        },
        {
          "internalType": "uint256[]",
          "name": "ids",
          "type": "uint256[]"
        },
        {
          "internalType": "uint256[]",
          "name": "amounts",
          "type": "uint256[]"
        },
        {
          "internalType": "bytes",
          "name": "data",
          "type": "bytes"
        }
      ],
      "name": "mintBatch",
      "outputs": [],
      "stateMutability": "nonpayable",
      "type": "function"
    }
  ],
  "bytecode": "0x60806040523480156200001157600080fd5b506040518060400160405280600781526020017f697066733a2f2f0000000000000000000000000000000000000000000000000081525062000059816200008060201b60201c565b506200007a6200006e6200009c60201b60201c565b620000a460201b60201c565b6200027f565b8060029080519060200190620000989291906200016a565b5050565b600033905090565b6000600360009054906101000a900473ffffffffffffffffffffffffffffffffffffffff16905081600360006101000a81548173ffffffffffffffffffffffffffffffffffffffff021916908373ffffffffffffffffffffffffffffffffffffffff1602179055508173ffffffffffffffffffffffffffffffffffffffff168173ffffffffffffffffffffffffffffffffffffffff167f8be0079c531659141344cd1fd0a4f28419497f9722a3daafe3b4186f6b6457e060405160405180910390a35050565b82805462000178906200021a565b90600052602060002090601f0160209004810192826200019c5760008555620001e8565b82601f10620001b757805160ff1916838001178555620001e8565b82800160010185558215620001e8579182015b82811115620001e7578251825591602001919060010190620001ca565b5b509050620001f79190620001fb565b5090565b5b8082111562000216576000816000905550600101620001fc565b5090565b600060028204905060018216806200023357607f821691505b602082108114156200024a576200024962000250565b5b50919050565b7f4e487b7100000000000000000000000000000000000000000000000000000000600052602260045260246000fd5b6132ce806200028f6000396000f3fe608060405234801561001057600080fd5b50600436106100e95760003560e01c80634e1273f41161008c578063a22cb46511610066578063a22cb46514610246578063e985e9c514610262578063f242432a14610292578063f2fde38b146102ae576100e9565b80634e1273f4146101ee578063715018a61461021e5780638da5cb5b14610228576100e9565b80630e89341c116100c85780630e89341c1461016a578063156e29f61461019a5780631f7fdffa146101b65780632eb2c2d6146101d2576100e9565b8062fdd58e146100ee57806301ffc9a71461011e57806302fe53051461014e575b600080fd5b610108600480360381019061010391906122c4565b6102ca565b6040516101159190612db6565b60405180910390f35b610138600480360381019061013391906123bb565b610393565b6040516101459190612bd9565b60405180910390f35b6101686004803603810190610163919061240d565b610475565b005b610184600480360381019061017f919061244e565b6104fd565b6040516101919190612bf4565b60405180910390f35b6101b460048036038101906101af9190612300565b610591565b005b6101d060048036038101906101cb91906121dd565b61062d565b005b6101ec60048036038101906101e7919061208f565b6106bb565b005b6102086004803603810190610203919061234f565b61075c565b6040516102159190612b80565b60405180910390f35b61022661090d565b005b610230610995565b60405161023d9190612aa3565b60405180910390f35b610260600480360381019061025b9190612288565b6109bf565b005b61027c60048036038101906102779190612053565b610b40565b6040516102899190612bd9565b60405180910390f35b6102ac60048036038101906102a7919061214e565b610bd4565b005b6102c860048036038101906102c3919061202a565b610c75565b005b60008073ffffffffffffffffffffffffffffffffffffffff168373ffffffffffffffffffffffffffffffffffffffff16141561033b576040517f08c379a000000000000000000000000000000000000000000000000000000000815260040161033290612c56565b60405180910390fd5b60008083815260200190815260200160002060008473ffffffffffffffffffffffffffffffffffffffff1673ffffffffffffffffffffffffffffffffffffffff16815260200190815260200160002054905092915050565b60007fd9b67a26000000000000000000000000000000000000000000000000000000007bffffffffffffffffffffffffffffffffffffffffffffffffffffffff1916827bffffffffffffffffffffffffffffffffffffffffffffffffffffffff1916148061045e57507f0e89341c000000000000000000000000000000000000000000000000000000007bffffffffffffffffffffffffffffffffffffffffffffffffffffffff1916827bffffffffffffffffffffffffffffffffffffffffffffffffffffffff1916145b8061046e575061046d82610d6d565b5b9050919050565b61047d610dd7565b73ffffffffffffffffffffffffffffffffffffffff1661049b610995565b73ffffffffffffffffffffffffffffffffffffffff16146104f1576040517f08c379a00000000000000000000000000000000000000000000000000000000081526004016104e890612d16565b60405180910390fd5b6104fa81610ddf565b50565b60606002805461050c90613060565b80601f016020809104026020016040519081016040528092919081815260200182805461053890613060565b80156105855780601f1061055a57610100808354040283529160200191610585565b820191906000526020600020905b81548152906001019060200180831161056857829003601f168201915b50505050509050919050565b610599610dd7565b73ffffffffffffffffffffffffffffffffffffffff166105b7610995565b73ffffffffffffffffffffffffffffffffffffffff161461060d576040517f08c379a000000000000000000000000000000000000000000000000000000000815260040161060490612d16565b60405180910390fd5b61062883838360405180602001604052806000815250610df9565b505050565b610635610dd7565b73ffffffffffffffffffffffffffffffffffffffff16610653610995565b73ffffffffffffffffffffffffffffffffffffffff16146106a9576040517f08c379a00000000000000000000000000000000000000000000000000000000081526004016106a090612d16565b60405180910390fd5b6106b584848484610f8f565b50505050565b6106c3610dd7565b73ffffffffffffffffffffffffffffffffffffffff168573ffffffffffffffffffffffffffffffffffffffff161480610709575061070885610703610dd7565b610b40565b5b610748576040517f08c379a000000000000000000000000000000000000000000000000000000000815260040161073f90612cd6565b60405180910390fd5b61075585858585856111f9565b5050505050565b606081518351146107a2576040517f08c379a000000000000000000000000000000000000000000000000000000000815260040161079990612d56565b60405180910390fd5b6000835167ffffffffffffffff8111156107e5577f4e487b7100000000000000000000000000000000000000000000000000000000600052604160045260246000fd5b6040519080825280602002602001820160405280156108135781602001602082028036833780820191505090505b50905060005b8451811015610902576108ac85828151811061085e577f4e487b7100000000000000000000000000000000000000000000000000000000600052603260045260246000fd5b602002602001015185838151811061089f577f4e487b7100000000000000000000000000000000000000000000000000000000600052603260045260246000fd5b60200260200101516102ca565b8282815181106108e5577f4e487b7100000000000000000000000000000000000000000000000000000000600052603260045260246000fd5b602002602001018181525050806108fb90613092565b9050610819565b508091505092915050565b610915610dd7565b73ffffffffffffffffffffffffffffffffffffffff16610933610995565b73ffffffffffffffffffffffffffffffffffffffff1614610989576040517f08c379a000000000000000000000000000000000000000000000000000000000815260040161098090612d16565b60405180910390fd5b6109936000611559565b565b6000600360009054906101000a900473ffffffffffffffffffffffffffffffffffffffff16905090565b8173ffffffffffffffffffffffffffffffffffffffff166109de610dd7565b73ffffffffffffffffffffffffffffffffffffffff161415610a35576040517f08c379a0000000000000000000000000000000000000000000000000000000008152600401610a2c90612d36565b60405180910390fd5b8060016000610a42610dd7565b73ffffffffffffffffffffffffffffffffffffffff1673ffffffffffffffffffffffffffffffffffffffff16815260200190815260200160002060008473ffffffffffffffffffffffffffffffffffffffff1673ffffffffffffffffffffffffffffffffffffffff16815260200190815260200160002060006101000a81548160ff0219169083151502179055508173ffffffffffffffffffffffffffffffffffffffff16610aef610dd7565b73ffffffffffffffffffffffffffffffffffffffff167f17307eab39ab6107e8899845ad3d59bd9653f200f220920489ca2b5937696c3183604051610b349190612bd9565b60405180910390a35050565b6000600160008473ffffffffffffffffffffffffffffffffffffffff1673ffffffffffffffffffffffffffffffffffffffff16815260200190815260200160002060008373ffffffffffffffffffffffffffffffffffffffff1673ffffffffffffffffffffffffffffffffffffffff16815260200190815260200160002060009054906101000a900460ff16905092915050565b610bdc610dd7565b73ffffffffffffffffffffffffffffffffffffffff168573ffffffffffffffffffffffffffffffffffffffff161480610c225750610c2185610c1c610dd7565b610b40565b5b610c61576040517f08c379a0000000000000000000000000000000000000000000000000000000008152600401610c5890612c96565b60405180910390fd5b610c6e858585858561161f565b5050505050565b610c7d610dd7565b73ffffffffffffffffffffffffffffffffffffffff16610c9b610995565b73ffffffffffffffffffffffffffffffffffffffff1614610cf1576040517f08c379a0000000000000000000000000000000000000000000000000000000008152600401610ce890612d16565b60405180910390fd5b600073ffffffffffffffffffffffffffffffffffffffff168173ffffffffffffffffffffffffffffffffffffffff161415610d61576040517f08c379a0000000000000000000000000000000000000000000000000000000008152600401610d5890612c76565b60405180910390fd5b610d6a81611559565b50565b60007f01ffc9a7000000000000000000000000000000000000000000000000000000007bffffffffffffffffffffffffffffffffffffffffffffffffffffffff1916827bffffffffffffffffffffffffffffffffffffffffffffffffffffffff1916149050919050565b600033905090565b8060029080519060200190610df5929190611d22565b5050565b600073ffffffffffffffffffffffffffffffffffffffff168473ffffffffffffffffffffffffffffffffffffffff161415610e69576040517f08c379a0000000000000000000000000000000000000000000000000000000008152600401610e6090612d96565b60405180910390fd5b6000610e73610dd7565b9050610e9481600087610e85886118a1565b610e8e886118a1565b87611967565b8260008086815260200190815260200160002060008773ffffffffffffffffffffffffffffffffffffffff1673ffffffffffffffffffffffffffffffffffffffff1681526020019081526020016000206000828254610ef39190612f54565b925050819055508473ffffffffffffffffffffffffffffffffffffffff16600073ffffffffffffffffffffffffffffffffffffffff168273ffffffffffffffffffffffffffffffffffffffff167fc3d58168c5ae7397731d063d5bbf3d657854427343f4c083240f7aacaa2d0f628787604051610f71929190612dd1565b60405180910390a4610f888160008787878761196f565b5050505050565b600073ffffffffffffffffffffffffffffffffffffffff168473ffffffffffffffffffffffffffffffffffffffff161415610fff576040517f08c379a0000000000000000000000000000000000000000000000000000000008152600401610ff690612d96565b60405180910390fd5b8151835114611043576040517f08c379a000000000000000000000000000000000000000000000000000000000815260040161103a90612d76565b60405180910390fd5b600061104d610dd7565b905061105e81600087878787611967565b60005b8451811015611163578381815181106110a3577f4e487b7100000000000000000000000000000000000000000000000000000000600052603260045260246000fd5b60200260200101516000808784815181106110e7577f4e487b7100000000000000000000000000000000000000000000000000000000600052603260045260246000fd5b6020026020010151815260200190815260200160002060008873ffffffffffffffffffffffffffffffffffffffff1673ffffffffffffffffffffffffffffffffffffffff16815260200190815260200160002060008282546111499190612f54565b92505081905550808061115b90613092565b915050611061565b508473ffffffffffffffffffffffffffffffffffffffff16600073ffffffffffffffffffffffffffffffffffffffff168273ffffffffffffffffffffffffffffffffffffffff167f4a39dc06d4c0dbc64b70af90fd698a233a518aa5d07e595d983b8c0526c8f7fb87876040516111db929190612ba2565b60405180910390a46111f281600087878787611b3f565b5050505050565b815183511461123d576040517f08c379a000000000000000000000000000000000000000000000000000000000815260040161123490612d76565b60405180910390fd5b600073ffffffffffffffffffffffffffffffffffffffff168473ffffffffffffffffffffffffffffffffffffffff1614156112ad576040517f08c379a00000000000000000000000000000000000000000000000000000000081526004016112a490612cb6565b60405180910390fd5b60006112b7610dd7565b90506112c7818787878787611967565b60005b84518110156114c457600085828151811061130e577f4e487b7100000000000000000000000000000000000000000000000000000000600052603260045260246000fd5b602002602001015190506000858381518110611353577f4e487b7100000000000000000000000000000000000000000000000000000000600052603260045260246000fd5b60200260200101519050600080600084815260200190815260200160002060008b73ffffffffffffffffffffffffffffffffffffffff1673ffffffffffffffffffffffffffffffffffffffff168152602001908152602001600020549050818110156113f4576040517f08c379a00000000000000000000000000000000000000000000000000000000081526004016113eb90612cf6565b60405180910390fd5b81810360008085815260200190815260200160002060008c73ffffffffffffffffffffffffffffffffffffffff1673ffffffffffffffffffffffffffffffffffffffff168152602001908152602001600020819055508160008085815260200190815260200160002060008b73ffffffffffffffffffffffffffffffffffffffff1673ffffffffffffffffffffffffffffffffffffffff16815260200190815260200160002060008282546114a99190612f54565b92505081905550505050806114bd90613092565b90506112ca565b508473ffffffffffffffffffffffffffffffffffffffff168673ffffffffffffffffffffffffffffffffffffffff168273ffffffffffffffffffffffffffffffffffffffff167f4a39dc06d4c0dbc64b70af90fd698a233a518aa5d07e595d983b8c0526c8f7fb878760405161153b929190612ba2565b60405180910390a4611551818787878787611b3f565b505050505050565b6000600360009054906101000a900473ffffffffffffffffffffffffffffffffffffffff16905081600360006101000a81548173ffffffffffffffffffffffffffffffffffffffff021916908373ffffffffffffffffffffffffffffffffffffffff1602179055508173ffffffffffffffffffffffffffffffffffffffff168173ffffffffffffffffffffffffffffffffffffffff167f8be0079c531659141344cd1fd0a4f28419497f9722a3daafe3b4186f6b6457e060405160405180910390a35050565b600073ffffffffffffffffffffffffffffffffffffffff168473ffffffffffffffffffffffffffffffffffffffff16141561168f576040517f08c379a000000000000000000000000000000000000000000000000000000000815260040161168690612cb6565b60405180910390fd5b6000611699610dd7565b90506116b98187876116aa886118a1565b6116b3886118a1565b87611967565b600080600086815260200190815260200160002060008873ffffffffffffffffffffffffffffffffffffffff1673ffffffffffffffffffffffffffffffffffffffff16815260200190815260200160002054905083811015611750576040517f08c379a000000000000000000000000000000000000000000000000000000000815260040161174790612cf6565b60405180910390fd5b83810360008087815260200190815260200160002060008973ffffffffffffffffffffffffffffffffffffffff1673ffffffffffffffffffffffffffffffffffffffff168152602001908152602001600020819055508360008087815260200190815260200160002060008873ffffffffffffffffffffffffffffffffffffffff1673ffffffffffffffffffffffffffffffffffffffff16815260200190815260200160002060008282546118059190612f54565b925050819055508573ffffffffffffffffffffffffffffffffffffffff168773ffffffffffffffffffffffffffffffffffffffff168373ffffffffffffffffffffffffffffffffffffffff167fc3d58168c5ae7397731d063d5bbf3d657854427343f4c083240f7aacaa2d0f628888604051611882929190612dd1565b60405180910390a461189882888888888861196f565b50505050505050565b60606000600167ffffffffffffffff8111156118e6577f4e487b7100000000000000000000000000000000000000000000000000000000600052604160045260246000fd5b6040519080825280602002602001820160405280156119145781602001602082028036833780820191505090505b5090508281600081518110611952577f4e487b7100000000000000000000000000000000000000000000000000000000600052603260045260246000fd5b60200260200101818152505080915050919050565b505050505050565b61198e8473ffffffffffffffffffffffffffffffffffffffff16611d0f565b15611b37578373ffffffffffffffffffffffffffffffffffffffff1663f23a6e6187878686866040518663ffffffff1660e01b81526004016119d4959493929190612b26565b602060405180830381600087803b1580156119ee57600080fd5b505af1925050508015611a1f57506040513d601f19601f82011682018060405250810190611a1c91906123e4565b60015b611aae57611a2b613186565b80611a365750611a73565b806040517f08c379a0000000000000000000000000000000000000000000000000000000008152600401611a6a9190612bf4565b60405180910390fd5b6040517f08c379a0000000000000000000000000000000000000000000000000000000008152600401611aa590612c16565b60405180910390fd5b63f23a6e6160e01b7bffffffffffffffffffffffffffffffffffffffffffffffffffffffff1916817bffffffffffffffffffffffffffffffffffffffffffffffffffffffff191614611b35576040517f08c379a0000000000000000000000000000000000000000000000000000000008152600401611b2c90612c36565b60405180910390fd5b505b505050505050565b611b5e8473ffffffffffffffffffffffffffffffffffffffff16611d0f565b15611d07578373ffffffffffffffffffffffffffffffffffffffff1663bc197c8187878686866040518663ffffffff1660e01b8152600401611ba4959493929190612abe565b602060405180830381600087803b158015611bbe57600080fd5b505af1925050508015611bef57506040513d601f19601f82011682018060405250810190611bec91906123e4565b60015b611c7e57611bfb613186565b80611c065750611c43565b806040517f08c379a0000000000000000000000000000000000000000000000000000000008152600401611c3a9190612bf4565b60405180910390fd5b6040517f08c379a0000000000000000000000000000000000000000000000000000000008152600401611c7590612c16565b60405180910390fd5b63bc197c8160e01b7bffffffffffffffffffffffffffffffffffffffffffffffffffffffff1916817bffffffffffffffffffffffffffffffffffffffffffffffffffffffff191614611d05576040517f08c379a0000000000000000000000000000000000000000000000000000000008152600401611cfc90612c36565b60405180910390fd5b505b505050505050565b600080823b905060008111915050919050565b828054611d2e90613060565b90600052602060002090601f016020900481019282611d505760008555611d97565b82601f10611d6957805160ff1916838001178555611d97565b82800160010185558215611d97579182015b82811115611d96578251825591602001919060010190611d7b565b5b509050611da49190611da8565b5090565b5b80821115611dc1576000816000905550600101611da9565b5090565b6000611dd8611dd384612e2b565b612dfa565b90508083825260208201905082856020860282011115611df757600080fd5b60005b85811015611e275781611e0d8882611f19565b845260208401935060208301925050600181019050611dfa565b5050509392505050565b6000611e44611e3f84612e57565b612dfa565b90508083825260208201905082856020860282011115611e6357600080fd5b60005b85811015611e935781611e798882612015565b845260208401935060208301925050600181019050611e66565b5050509392505050565b6000611eb0611eab84612e83565b612dfa565b905082815260208101848484011115611ec857600080fd5b611ed384828561301e565b509392505050565b6000611eee611ee984612eb3565b612dfa565b905082815260208101848484011115611f0657600080fd5b611f1184828561301e565b509392505050565b600081359050611f288161323c565b92915050565b600082601f830112611f3f57600080fd5b8135611f4f848260208601611dc5565b91505092915050565b600082601f830112611f6957600080fd5b8135611f79848260208601611e31565b91505092915050565b600081359050611f9181613253565b92915050565b600081359050611fa68161326a565b92915050565b600081519050611fbb8161326a565b92915050565b600082601f830112611fd257600080fd5b8135611fe2848260208601611e9d565b91505092915050565b600082601f830112611ffc57600080fd5b813561200c848260208601611edb565b91505092915050565b60008135905061202481613281565b92915050565b60006020828403121561203c57600080fd5b600061204a84828501611f19565b91505092915050565b6000806040838503121561206657600080fd5b600061207485828601611f19565b925050602061208585828601611f19565b9150509250929050565b600080600080600060a086880312156120a757600080fd5b60006120b588828901611f19565b95505060206120c688828901611f19565b945050604086013567ffffffffffffffff8111156120e357600080fd5b6120ef88828901611f58565b935050606086013567ffffffffffffffff81111561210c57600080fd5b61211888828901611f58565b925050608086013567ffffffffffffffff81111561213557600080fd5b61214188828901611fc1565b9150509295509295909350565b600080600080600060a0868803121561216657600080fd5b600061217488828901611f19565b955050602061218588828901611f19565b945050604061219688828901612015565b93505060606121a788828901612015565b925050608086013567ffffffffffffffff8111156121c457600080fd5b6121d088828901611fc1565b9150509295509295909350565b600080600080608085870312156121f357600080fd5b600061220187828801611f19565b945050602085013567ffffffffffffffff81111561221e57600080fd5b61222a87828801611f58565b935050604085013567ffffffffffffffff81111561224757600080fd5b61225387828801611f58565b925050606085013567ffffffffffffffff81111561227057600080fd5b61227c87828801611fc1565b91505092959194509250565b6000806040838503121561229b57600080fd5b60006122a985828601611f19565b92505060206122ba85828601611f82565b9150509250929050565b600080604083850312156122d757600080fd5b60006122e585828601611f19565b92505060206122f685828601612015565b9150509250929050565b60008060006060848603121561231557600080fd5b600061232386828701611f19565b935050602061233486828701612015565b925050604061234586828701612015565b9150509250925092565b6000806040838503121561236257600080fd5b600083013567ffffffffffffffff81111561237c57600080fd5b61238885828601611f2e565b925050602083013567ffffffffffffffff8111156123a557600080fd5b6123b185828601611f58565b9150509250929050565b6000602082840312156123cd57600080fd5b60006123db84828501611f97565b91505092915050565b6000602082840312156123f657600080fd5b600061240484828501611fac565b91505092915050565b60006020828403121561241f57600080fd5b600082013567ffffffffffffffff81111561243957600080fd5b61244584828501611feb565b91505092915050565b60006020828403121561246057600080fd5b600061246e84828501612015565b91505092915050565b60006124838383612a85565b60208301905092915050565b61249881612faa565b82525050565b60006124a982612ef3565b6124b38185612f21565b93506124be83612ee3565b8060005b838110156124ef5781516124d68882612477565b97506124e183612f14565b9250506001810190506124c2565b5085935050505092915050565b61250581612fbc565b82525050565b600061251682612efe565b6125208185612f32565b935061253081856020860161302d565b61253981613168565b840191505092915050565b600061254f82612f09565b6125598185612f43565b935061256981856020860161302d565b61257281613168565b840191505092915050565b600061258a603483612f43565b91507f455243313135353a207472616e7366657220746f206e6f6e204552433131353560008301527f526563656976657220696d706c656d656e7465720000000000000000000000006020830152604082019050919050565b60006125f0602883612f43565b91507f455243313135353a204552433131353552656365697665722072656a6563746560008301527f6420746f6b656e730000000000000000000000000000000000000000000000006020830152604082019050919050565b6000612656602b83612f43565b91507f455243313135353a2062616c616e636520717565727920666f7220746865207a60008301527f65726f20616464726573730000000000000000000000000000000000000000006020830152604082019050919050565b60006126bc602683612f43565b91507f4f776e61626c653a206e6577206f776e657220697320746865207a65726f206160008301527f64647265737300000000000000000000000000000000000000000000000000006020830152604082019050919050565b6000612722602983612f43565b91507f455243313135353a2063616c6c6572206973206e6f74206f776e6572206e6f7260008301527f20617070726f76656400000000000000000000000000000000000000000000006020830152604082019050919050565b6000612788602583612f43565b91507f455243313135353a207472616e7366657220746f20746865207a65726f20616460008301527f64726573730000000000000000000000000000000000000000000000000000006020830152604082019050919050565b60006127ee603283612f43565b91507f455243313135353a207472616e736665722063616c6c6572206973206e6f742060008301527f6f776e6572206e6f7220617070726f76656400000000000000000000000000006020830152604082019050919050565b6000612854602a83612f43565b91507f455243313135353a20696e73756666696369656e742062616c616e636520666f60008301527f72207472616e73666572000000000000000000000000000000000000000000006020830152604082019050919050565b60006128ba602083612f43565b91507f4f776e61626c653a2063616c6c6572206973206e6f7420746865206f776e65726000830152602082019050919050565b60006128fa602983612f43565b91507f455243313135353a2073657474696e6720617070726f76616c2073746174757360008301527f20666f722073656c6600000000000000000000000000000000000000000000006020830152604082019050919050565b6000612960602983612f43565b91507f455243313135353a206163636f756e747320616e6420696473206c656e67746860008301527f206d69736d6174636800000000000000000000000000000000000000000000006020830152604082019050919050565b60006129c6602883612f43565b91507f455243313135353a2069647320616e6420616d6f756e7473206c656e6774682060008301527f6d69736d617463680000000000000000000000000000000000000000000000006020830152604082019050919050565b6000612a2c602183612f43565b91507f455243313135353a206d696e7420746f20746865207a65726f2061646472657360008301527f73000000000000000000000000000000000000000000000000000000000000006020830152604082019050919050565b612a8e81613014565b82525050565b612a9d81613014565b82525050565b6000602082019050612ab8600083018461248f565b92915050565b600060a082019050612ad3600083018861248f565b612ae0602083018761248f565b8181036040830152612af2818661249e565b90508181036060830152612b06818561249e565b90508181036080830152612b1a818461250b565b90509695505050505050565b600060a082019050612b3b600083018861248f565b612b48602083018761248f565b612b556040830186612a94565b612b626060830185612a94565b8181036080830152612b74818461250b565b90509695505050505050565b60006020820190508181036000830152612b9a818461249e565b905092915050565b60006040820190508181036000830152612bbc818561249e565b90508181036020830152612bd0818461249e565b90509392505050565b6000602082019050612bee60008301846124fc565b92915050565b60006020820190508181036000830152612c0e8184612544565b905092915050565b60006020820190508181036000830152612c2f8161257d565b9050919050565b60006020820190508181036000830152612c4f816125e3565b9050919050565b60006020820190508181036000830152612c6f81612649565b9050919050565b60006020820190508181036000830152612c8f816126af565b9050919050565b60006020820190508181036000830152612caf81612715565b9050919050565b60006020820190508181036000830152612ccf8161277b565b9050919050565b60006020820190508181036000830152612cef816127e1565b9050919050565b60006020820190508181036000830152612d0f81612847565b9050919050565b60006020820190508181036000830152612d2f816128ad565b9050919050565b60006020820190508181036000830152612d4f816128ed565b9050919050565b60006020820190508181036000830152612d6f81612953565b9050919050565b60006020820190508181036000830152612d8f816129b9565b9050919050565b60006020820190508181036000830152612daf81612a1f565b9050919050565b6000602082019050612dcb6000830184612a94565b92915050565b6000604082019050612de66000830185612a94565b612df36020830184612a94565b9392505050565b6000604051905081810181811067ffffffffffffffff82111715612e2157612e20613139565b5b8060405250919050565b600067ffffffffffffffff821115612e4657612e45613139565b5b602082029050602081019050919050565b600067ffffffffffffffff821115612e7257612e71613139565b5b602082029050602081019050919050565b600067ffffffffffffffff821115612e9e57612e9d613139565b5b601f19601f8301169050602081019050919050565b600067ffffffffffffffff821115612ece57612ecd613139565b5b601f19601f8301169050602081019050919050565b6000819050602082019050919050565b600081519050919050565b600081519050919050565b600081519050919050565b6000602082019050919050565b600082825260208201905092915050565b600082825260208201905092915050565b600082825260208201905092915050565b6000612f5f82613014565b9150612f6a83613014565b9250827fffffffffffffffffffffffffffffffffffffffffffffffffffffffffffffffff03821115612f9f57612f9e6130db565b5b828201905092915050565b6000612fb582612ff4565b9050919050565b60008115159050919050565b60007fffffffff0000000000000000000000000000000000000000000000000000000082169050919050565b600073ffffffffffffffffffffffffffffffffffffffff82169050919050565b6000819050919050565b82818337600083830152505050565b60005b8381101561304b578082015181840152602081019050613030565b8381111561305a576000848401525b50505050565b6000600282049050600182168061307857607f821691505b6020821081141561308c5761308b61310a565b5b50919050565b600061309d82613014565b91507fffffffffffffffffffffffffffffffffffffffffffffffffffffffffffffffff8214156130d0576130cf6130db565b5b600182019050919050565b7f4e487b7100000000000000000000000000000000000000000000000000000000600052601160045260246000fd5b7f4e487b7100000000000000000000000000000000000000000000000000000000600052602260045260246000fd5b7f4e487b7100000000000000000000000000000000000000000000000000000000600052604160045260246000fd5b6000601f19601f8301169050919050565b60008160e01c9050919050565b600060443d101561319657613239565b60046000803e6131a7600051613179565b6308c379a081146131b85750613239565b60405160043d036004823e80513d602482011167ffffffffffffffff821117156131e457505050613239565b808201805167ffffffffffffffff811115613203575050505050613239565b8060208301013d850181111561321e57505050505050613239565b61322782613168565b60208401016040528296505050505050505b90565b61324581612faa565b811461325057600080fd5b50565b61325c81612fbc565b811461326757600080fd5b50565b61327381612fc8565b811461327e57600080fd5b50565b61328a81613014565b811461329557600080fd5b5056fea264697066735822122010a1e766bfc8ecbac8bcf2380937c682442bd553a4373f75b9cc7d7797c80c0464736f6c63430008000033",
  "immutableReferences": {},
  "source": "// SPDX-License-Identifier: MIT\npragma solidity >=0.4.22 <0.9.0;\n\nimport \"@openzeppelin/contracts/token/ERC1155/ERC1155.sol\";\nimport \"@openzeppelin/contracts/access/Ownable.sol\";\n\ncontract TestERC1155Token is ERC1155, Ownable {\n    constructor() ERC1155(\"ipfs://\") {}\n\n    function setURI(string memory newuri) public onlyOwner {\n        _setURI(newuri);\n    }\n\n    function mint(\n        address account,\n        uint256 id,\n        uint256 amount\n    ) public onlyOwner {\n        _mint(account, id, amount, \"\");\n    }\n\n    function mintBatch(\n        address to,\n        uint256[] memory ids,\n        uint256[] memory amounts,\n        bytes memory data\n    ) public onlyOwner {\n        _mintBatch(to, ids, amounts, data);\n    }\n}\n",
  "sourcePath": "/home/yash/Development/arsyan_work/nft_swap/smart_contracts/contracts/TestERC1155Token.sol",
  "compiler": {
    "name": "solc",
    "version": "0.8.0+commit.c7dfd78e.Emscripten.clang"
  },
  "schemaVersion": "3.4.1",
  "updatedAt": "2021-08-23T06:08:00.825Z",
  "networkType": "ethereum",
  "devdoc": {
    "kind": "dev",
    "methods": {
      "balanceOf(address,uint256)": {
        "details": "See {IERC1155-balanceOf}. Requirements: - `account` cannot be the zero address."
      },
      "balanceOfBatch(address[],uint256[])": {
        "details": "See {IERC1155-balanceOfBatch}. Requirements: - `accounts` and `ids` must have the same length."
      },
      "isApprovedForAll(address,address)": {
        "details": "See {IERC1155-isApprovedForAll}."
      },
      "owner()": {
        "details": "Returns the address of the current owner."
      },
      "renounceOwnership()": {
        "details": "Leaves the contract without owner. It will not be possible to call `onlyOwner` functions anymore. Can only be called by the current owner. NOTE: Renouncing ownership will leave the contract without an owner, thereby removing any functionality that is only available to the owner."
      },
      "safeBatchTransferFrom(address,address,uint256[],uint256[],bytes)": {
        "details": "See {IERC1155-safeBatchTransferFrom}."
      },
      "safeTransferFrom(address,address,uint256,uint256,bytes)": {
        "details": "See {IERC1155-safeTransferFrom}."
      },
      "setApprovalForAll(address,bool)": {
        "details": "See {IERC1155-setApprovalForAll}."
      },
      "supportsInterface(bytes4)": {
        "details": "See {IERC165-supportsInterface}."
      },
      "transferOwnership(address)": {
        "details": "Transfers ownership of the contract to a new account (`newOwner`). Can only be called by the current owner."
      },
      "uri(uint256)": {
        "details": "See {IERC1155MetadataURI-uri}. This implementation returns the same URI for *all* token types. It relies on the token type ID substitution mechanism https://eips.ethereum.org/EIPS/eip-1155#metadata[defined in the EIP]. Clients calling this function must replace the `\\{id\\}` substring with the actual token type ID."
      }
    },
    "version": 1
  },
  "userdoc": {
    "kind": "user",
    "methods": {},
    "version": 1
  }
}